{
  "contractName": "BlockchainLottery",
  "abi": [
    {
      "inputs": [],
      "stateMutability": "nonpayable",
      "type": "constructor"
    },
    {
      "anonymous": false,
      "inputs": [
        {
          "indexed": false,
          "internalType": "address",
          "name": "",
          "type": "address"
        }
      ],
      "name": "DepositeAmountEvent",
      "type": "event"
    },
    {
      "anonymous": false,
      "inputs": [
        {
          "indexed": false,
          "internalType": "address",
          "name": "",
          "type": "address"
        },
        {
          "indexed": false,
          "internalType": "uint256",
          "name": "",
          "type": "uint256"
        }
      ],
      "name": "Winner",
      "type": "event"
    },
    {
      "inputs": [],
      "name": "USDTAddress",
      "outputs": [
        {
          "internalType": "address",
          "name": "",
          "type": "address"
        }
      ],
      "stateMutability": "view",
      "type": "function",
      "constant": true
    },
    {
      "inputs": [
        {
          "internalType": "address",
          "name": "",
          "type": "address"
        }
      ],
      "name": "addressAndTickets",
      "outputs": [
        {
          "internalType": "uint256",
          "name": "",
          "type": "uint256"
        }
      ],
      "stateMutability": "view",
      "type": "function",
      "constant": true
    },
    {
      "inputs": [],
      "name": "amount",
      "outputs": [
        {
          "internalType": "uint256",
          "name": "",
          "type": "uint256"
        }
      ],
      "stateMutability": "view",
      "type": "function",
      "constant": true
    },
    {
      "inputs": [],
      "name": "fee",
      "outputs": [
        {
          "internalType": "uint256",
          "name": "",
          "type": "uint256"
        }
      ],
      "stateMutability": "view",
      "type": "function",
      "constant": true
    },
    {
      "inputs": [],
      "name": "isOn",
      "outputs": [
        {
          "internalType": "bool",
          "name": "",
          "type": "bool"
        }
      ],
      "stateMutability": "view",
      "type": "function",
      "constant": true
    },
    {
      "inputs": [],
      "name": "lastWinner",
      "outputs": [
        {
          "internalType": "uint256",
          "name": "",
          "type": "uint256"
        }
      ],
      "stateMutability": "view",
      "type": "function",
      "constant": true
    },
    {
      "inputs": [],
      "name": "owner",
      "outputs": [
        {
          "internalType": "address",
          "name": "",
          "type": "address"
        }
      ],
      "stateMutability": "view",
      "type": "function",
      "constant": true
    },
    {
      "inputs": [
        {
          "internalType": "uint256",
          "name": "",
          "type": "uint256"
        }
      ],
      "name": "tickets",
      "outputs": [
        {
          "internalType": "uint256",
          "name": "",
          "type": "uint256"
        }
      ],
      "stateMutability": "view",
      "type": "function",
      "constant": true
    },
    {
      "inputs": [
        {
          "internalType": "uint256",
          "name": "",
          "type": "uint256"
        }
      ],
      "name": "ticketsAndAddress",
      "outputs": [
        {
          "internalType": "address",
          "name": "",
          "type": "address"
        }
      ],
      "stateMutability": "view",
      "type": "function",
      "constant": true
    },
    {
      "inputs": [
        {
          "internalType": "address",
          "name": "_address",
          "type": "address"
        }
      ],
      "name": "updateOwner",
      "outputs": [],
      "stateMutability": "nonpayable",
      "type": "function"
    },
    {
      "inputs": [
        {
          "internalType": "address",
          "name": "_account",
          "type": "address"
        }
      ],
      "name": "setFeeAccount",
      "outputs": [],
      "stateMutability": "nonpayable",
      "type": "function"
    },
    {
      "inputs": [
        {
          "internalType": "uint256",
          "name": "_fee",
          "type": "uint256"
        }
      ],
      "name": "updateFee",
      "outputs": [],
      "stateMutability": "nonpayable",
      "type": "function"
    },
    {
      "inputs": [
        {
          "internalType": "address",
          "name": "_newAddress",
          "type": "address"
        }
      ],
      "name": "updateUSDTAddress",
      "outputs": [],
      "stateMutability": "nonpayable",
      "type": "function"
    },
    {
      "inputs": [
        {
          "internalType": "uint256",
          "name": "_id",
          "type": "uint256"
        }
      ],
      "name": "getParticipants",
      "outputs": [
        {
          "internalType": "address",
          "name": "",
          "type": "address"
        }
      ],
      "stateMutability": "view",
      "type": "function",
      "constant": true
    },
    {
      "inputs": [
        {
          "internalType": "uint256",
          "name": "_amount",
          "type": "uint256"
        }
      ],
      "name": "setDepositeAmount",
      "outputs": [],
      "stateMutability": "nonpayable",
      "type": "function"
    },
    {
      "inputs": [
        {
          "internalType": "uint256",
          "name": "_num",
          "type": "uint256"
        }
      ],
      "name": "setRandNounce",
      "outputs": [],
      "stateMutability": "nonpayable",
      "type": "function"
    },
    {
      "inputs": [],
      "name": "getAllParticipants",
      "outputs": [
        {
          "internalType": "address[]",
          "name": "",
          "type": "address[]"
        }
      ],
      "stateMutability": "view",
      "type": "function",
      "constant": true
    },
    {
      "inputs": [],
      "name": "getAllTickets",
      "outputs": [
        {
          "internalType": "uint256[]",
          "name": "",
          "type": "uint256[]"
        }
      ],
      "stateMutability": "view",
      "type": "function",
      "constant": true
    },
    {
      "inputs": [
        {
          "internalType": "address",
          "name": "_address",
          "type": "address"
        }
      ],
      "name": "getTicket",
      "outputs": [
        {
          "internalType": "uint256",
          "name": "",
          "type": "uint256"
        }
      ],
      "stateMutability": "view",
      "type": "function",
      "constant": true
    },
    {
      "inputs": [
        {
          "internalType": "bool",
          "name": "_isOn",
          "type": "bool"
        }
      ],
      "name": "setIsOn",
      "outputs": [],
      "stateMutability": "nonpayable",
      "type": "function"
    },
    {
      "inputs": [
        {
          "internalType": "uint256",
          "name": "_amount",
          "type": "uint256"
        }
      ],
      "name": "depositeUSDT",
      "outputs": [],
      "stateMutability": "nonpayable",
      "type": "function"
    },
    {
      "inputs": [],
      "name": "assignTicket",
      "outputs": [],
      "stateMutability": "nonpayable",
      "type": "function"
    },
    {
      "inputs": [],
      "name": "getLottery",
      "outputs": [],
      "stateMutability": "nonpayable",
      "type": "function"
    }
  ],
  "bytecode": "0x60806040526001600060146101000a81548160ff0219169083151502179055506207a120600355600260045562a037a0600555600060065573c2132d05d31c914a87c6611c10748aeb04b58e8f600c60006101000a81548173ffffffffffffffffffffffffffffffffffffffff021916908373ffffffffffffffffffffffffffffffffffffffff16021790555034801561009857600080fd5b5033600760006101000a81548173ffffffffffffffffffffffffffffffffffffffff021916908373ffffffffffffffffffffffffffffffffffffffff160217905550336000806101000a81548173ffffffffffffffffffffffffffffffffffffffff021916908373ffffffffffffffffffffffffffffffffffffffff160217905550612620806101296000396000f3fe608060405234801561001057600080fd5b506004361061014d5760003560e01c8063880cdc31116100c3578063c1e3bd3e1161007c578063c1e3bd3e14610376578063cbc2cce7146103a6578063ddca3f43146103b0578063e41f8b53146103ce578063fe188184146103ea578063ff920c74146104085761014d565b8063880cdc31146102dc5780638da5cb5b146102f85780639012c4a8146103165780639660024814610332578063aa8c217c1461033c578063b0e199121461035a5761014d565b80634717dea9116101155780634717dea9146101f85780634b023cf81461022857806350b447121461024457806371e313bd1461027457806375d60372146102a45780637ebaf20a146102c05761014d565b806303e96fe314610152578063175bbecf14610170578063195ec9ee1461018e5780633923aada146101ac57806341779c00146101c8575b600080fd5b61015a610426565b6040516101679190611a3a565b60405180910390f35b61017861047e565b6040516101859190611a77565b60405180910390f35b610196610491565b6040516101a39190611b82565b60405180910390f35b6101c660048036038101906101c19190611bd5565b61051f565b005b6101e260048036038101906101dd9190611c2e565b6105cc565b6040516101ef9190611c6a565b60405180910390f35b610212600480360381019061020d9190611c2e565b6105e4565b60405161021f9190611c6a565b60405180910390f35b610242600480360381019061023d9190611c2e565b61062d565b005b61025e60048036038101906102599190611cb1565b610701565b60405161026b9190611c6a565b60405180910390f35b61028e60048036038101906102899190611cb1565b610725565b60405161029b9190611ced565b60405180910390f35b6102be60048036038101906102b99190611c2e565b610758565b005b6102da60048036038101906102d59190611cb1565b6108bc565b005b6102f660048036038101906102f19190611c2e565b610bb9565b005b610300610c8c565b60405161030d9190611ced565b60405180910390f35b610330600480360381019061032b9190611cb1565b610cb0565b005b61033a610d8e565b005b6103446110ab565b6040516103519190611c6a565b60405180910390f35b610374600480360381019061036f9190611cb1565b6110b1565b005b610390600480360381019061038b9190611cb1565b61114b565b60405161039d9190611ced565b60405180910390f35b6103ae611193565b005b6103b86116b2565b6040516103c59190611c6a565b60405180910390f35b6103e860048036038101906103e39190611cb1565b6116b8565b005b6103f2611752565b6040516103ff9190611c6a565b60405180910390f35b610410611758565b60405161041d9190611ced565b60405180910390f35b6060600a80548060200260200160405190810160405280929190818152602001828054801561047457602002820191906000526020600020905b815481526020019060010190808311610460575b5050505050905090565b600060149054906101000a900460ff1681565b6060600180548060200260200160405190810160405280929190818152602001828054801561051557602002820191906000526020600020905b8160009054906101000a900473ffffffffffffffffffffffffffffffffffffffff1673ffffffffffffffffffffffffffffffffffffffff16815260200190600101908083116104cb575b5050505050905090565b600760009054906101000a900473ffffffffffffffffffffffffffffffffffffffff1673ffffffffffffffffffffffffffffffffffffffff163373ffffffffffffffffffffffffffffffffffffffff16146105af576040517f08c379a00000000000000000000000000000000000000000000000000000000081526004016105a690611d65565b60405180910390fd5b80600060146101000a81548160ff02191690831515021790555050565b60096020528060005260406000206000915090505481565b6000600960008373ffffffffffffffffffffffffffffffffffffffff1673ffffffffffffffffffffffffffffffffffffffff168152602001908152602001600020549050919050565b600760009054906101000a900473ffffffffffffffffffffffffffffffffffffffff1673ffffffffffffffffffffffffffffffffffffffff163373ffffffffffffffffffffffffffffffffffffffff16146106bd576040517f08c379a00000000000000000000000000000000000000000000000000000000081526004016106b490611dd1565b60405180910390fd5b80600760006101000a81548173ffffffffffffffffffffffffffffffffffffffff021916908373ffffffffffffffffffffffffffffffffffffffff16021790555050565b600a818154811061071157600080fd5b906000526020600020016000915090505481565b60086020528060005260406000206000915054906101000a900473ffffffffffffffffffffffffffffffffffffffff1681565b600760009054906101000a900473ffffffffffffffffffffffffffffffffffffffff1673ffffffffffffffffffffffffffffffffffffffff163373ffffffffffffffffffffffffffffffffffffffff16146107e8576040517f08c379a00000000000000000000000000000000000000000000000000000000081526004016107df90611d65565b60405180910390fd5b600c60009054906101000a900473ffffffffffffffffffffffffffffffffffffffff1673ffffffffffffffffffffffffffffffffffffffff168173ffffffffffffffffffffffffffffffffffffffff1603610878576040517f08c379a000000000000000000000000000000000000000000000000000000000815260040161086f90611e3d565b60405180910390fd5b80600c60006101000a81548173ffffffffffffffffffffffffffffffffffffffff021916908373ffffffffffffffffffffffffffffffffffffffff16021790555050565b600060149054906101000a900460ff1661090b576040517f08c379a000000000000000000000000000000000000000000000000000000000815260040161090290611ea9565b60405180910390fd5b600554811461094f576040517f08c379a000000000000000000000000000000000000000000000000000000000815260040161094690611f3b565b60405180910390fd5b600c60009054906101000a900473ffffffffffffffffffffffffffffffffffffffff1673ffffffffffffffffffffffffffffffffffffffff166323b872dd33600760009054906101000a900473ffffffffffffffffffffffffffffffffffffffff166003546040518463ffffffff1660e01b81526004016109d293929190611f5b565b6020604051808303816000875af11580156109f1573d6000803e3d6000fd5b505050506040513d601f19601f82011682018060405250810190610a159190611fa7565b50600c60009054906101000a900473ffffffffffffffffffffffffffffffffffffffff1673ffffffffffffffffffffffffffffffffffffffff166323b872dd333060035485610a649190612003565b6040518463ffffffff1660e01b8152600401610a8293929190611f5b565b6020604051808303816000875af1158015610aa1573d6000803e3d6000fd5b505050506040513d601f19601f82011682018060405250810190610ac59190611fa7565b506001339080600181540180825580915050600190039060005260206000200160009091909190916101000a81548173ffffffffffffffffffffffffffffffffffffffff021916908373ffffffffffffffffffffffffffffffffffffffff16021790555080600b60003373ffffffffffffffffffffffffffffffffffffffff1673ffffffffffffffffffffffffffffffffffffffff1681526020019081526020016000206000828254610b789190612037565b925050819055507f4f7d5e68462c76e2693e9f56aaa9e9dec62a0558f74233ccc40145e2819dabb133604051610bae9190611ced565b60405180910390a150565b600760009054906101000a900473ffffffffffffffffffffffffffffffffffffffff1673ffffffffffffffffffffffffffffffffffffffff163373ffffffffffffffffffffffffffffffffffffffff1614610c49576040517f08c379a0000000000000000000000000000000000000000000000000000000008152600401610c40906120d9565b60405180910390fd5b806000806101000a81548173ffffffffffffffffffffffffffffffffffffffff021916908373ffffffffffffffffffffffffffffffffffffffff16021790555050565b60008054906101000a900473ffffffffffffffffffffffffffffffffffffffff1681565b600760009054906101000a900473ffffffffffffffffffffffffffffffffffffffff1673ffffffffffffffffffffffffffffffffffffffff163373ffffffffffffffffffffffffffffffffffffffff1614610d40576040517f08c379a0000000000000000000000000000000000000000000000000000000008152600401610d3790611dd1565b60405180910390fd5b6005548110610d84576040517f08c379a0000000000000000000000000000000000000000000000000000000008152600401610d7b90612145565b60405180910390fd5b8060038190555050565b600760009054906101000a900473ffffffffffffffffffffffffffffffffffffffff1673ffffffffffffffffffffffffffffffffffffffff163373ffffffffffffffffffffffffffffffffffffffff161480610e35575060008054906101000a900473ffffffffffffffffffffffffffffffffffffffff1673ffffffffffffffffffffffffffffffffffffffff163373ffffffffffffffffffffffffffffffffffffffff16145b610e74576040517f08c379a0000000000000000000000000000000000000000000000000000000008152600401610e6b906121d7565b60405180910390fd5b600060149054906101000a900460ff16610ec3576040517f08c379a0000000000000000000000000000000000000000000000000000000008152600401610eba90612243565b60405180910390fd5b600060018054905003610f0b576040517f08c379a0000000000000000000000000000000000000000000000000000000008152600401610f02906122af565b60405180910390fd5b60005b60018054905081101561108e576000610f2561177e565b905060018281548110610f3b57610f3a6122cf565b5b9060005260206000200160009054906101000a900473ffffffffffffffffffffffffffffffffffffffff166008600083815260200190815260200160002060006101000a81548173ffffffffffffffffffffffffffffffffffffffff021916908373ffffffffffffffffffffffffffffffffffffffff160217905550806009600060018581548110610fd057610fcf6122cf565b5b9060005260206000200160009054906101000a900473ffffffffffffffffffffffffffffffffffffffff1673ffffffffffffffffffffffffffffffffffffffff1673ffffffffffffffffffffffffffffffffffffffff16815260200190815260200160002081905550600a81908060018154018082558091505060019003906000526020600020016000909190919091505560046000815480929190611075906122fe565b9190505550508080611086906122fe565b915050610f0e565b5060008060146101000a81548160ff021916908315150217905550565b60055481565b600760009054906101000a900473ffffffffffffffffffffffffffffffffffffffff1673ffffffffffffffffffffffffffffffffffffffff163373ffffffffffffffffffffffffffffffffffffffff1614611141576040517f08c379a000000000000000000000000000000000000000000000000000000000815260040161113890611d65565b60405180910390fd5b8060058190555050565b600060018281548110611161576111606122cf565b5b9060005260206000200160009054906101000a900473ffffffffffffffffffffffffffffffffffffffff169050919050565b600760009054906101000a900473ffffffffffffffffffffffffffffffffffffffff1673ffffffffffffffffffffffffffffffffffffffff163373ffffffffffffffffffffffffffffffffffffffff16148061123a575060008054906101000a900473ffffffffffffffffffffffffffffffffffffffff1673ffffffffffffffffffffffffffffffffffffffff163373ffffffffffffffffffffffffffffffffffffffff16145b611279576040517f08c379a0000000000000000000000000000000000000000000000000000000008152600401611270906121d7565b60405180910390fd5b60001515600060149054906101000a900460ff161515146112cf576040517f08c379a00000000000000000000000000000000000000000000000000000000081526004016112c690612392565b60405180910390fd5b6000600a8054905003611317576040517f08c379a000000000000000000000000000000000000000000000000000000000815260040161130e906123fe565b60405180910390fd5b6000611372600a80548060200260200160405190810160405280929190818152602001828054801561136857602002820191906000526020600020905b815481526020019060010190808311611354575b50505050506117ce565b9050600061137e611926565b90506000600c60009054906101000a900473ffffffffffffffffffffffffffffffffffffffff1673ffffffffffffffffffffffffffffffffffffffff166370a08231306040518263ffffffff1660e01b81526004016113dd9190611ced565b602060405180830381865afa1580156113fa573d6000803e3d6000fd5b505050506040513d601f19601f8201168201806040525081019061141e9190612433565b9050600c60009054906101000a900473ffffffffffffffffffffffffffffffffffffffff1673ffffffffffffffffffffffffffffffffffffffff1663a9059cbb60086000868681518110611475576114746122cf565b5b6020026020010151815260200190815260200160002060009054906101000a900473ffffffffffffffffffffffffffffffffffffffff16836040518363ffffffff1660e01b81526004016114ca929190612460565b6020604051808303816000875af11580156114e9573d6000803e3d6000fd5b505050506040513d601f19601f8201168201806040525081019061150d9190611fa7565b50828281518110611521576115206122cf565b5b60200260200101516002819055507f9c2270628a9b29d30ae96b6c4c14ed646ee134febdce38a5b77f2bde9cea2e2060086000858581518110611567576115666122cf565b5b6020026020010151815260200190815260200160002060009054906101000a900473ffffffffffffffffffffffffffffffffffffffff168484815181106115b1576115b06122cf565b5b60200260200101516040516115c7929190612460565b60405180910390a16000600180549050905060005b8181101561163e5760018054806115f6576115f5612489565b5b6001900381819060005260206000200160006101000a81549073ffffffffffffffffffffffffffffffffffffffff021916905590558080611636906122fe565b9150506115dc565b506000600a80549050905060005b8181101561168f57600a80548061166657611665612489565b5b600190038181906000526020600020016000905590558080611687906122fe565b91505061164c565b506001600060146101000a81548160ff0219169083151502179055505050505050565b60035481565b600760009054906101000a900473ffffffffffffffffffffffffffffffffffffffff1673ffffffffffffffffffffffffffffffffffffffff163373ffffffffffffffffffffffffffffffffffffffff1614611748576040517f08c379a000000000000000000000000000000000000000000000000000000000815260040161173f90611dd1565b60405180910390fd5b8060048190555050565b60025481565b600c60009054906101000a900473ffffffffffffffffffffffffffffffffffffffff1681565b600080620186a0905060008142336004546040516020016117a193929190612521565b6040516020818303038152906040528051906020012060001c6117c4919061258d565b9050809250505090565b606060008251905060008351905060005b8181101561191557600060018442888581518110611800576117ff6122cf565b5b60200260200101516040516020016118199291906125be565b6040516020818303038152906040528051906020012060001c61183c919061258d565b6118469190612037565b90506000866001836118589190612003565b81518110611869576118686122cf565b5b60200260200101519050866001866118819190612003565b81518110611892576118916122cf565b5b6020026020010151876001846118a89190612003565b815181106118b9576118b86122cf565b5b60200260200101818152505080876001876118d49190612003565b815181106118e5576118e46122cf565b5b6020026020010181815250506001856118fe9190612003565b94505050808061190d906122fe565b9150506117df565b506060849050809350505050919050565b600080600a80549050905080423360045460405160200161194993929190612521565b6040516020818303038152906040528051906020012060001c61196c919061258d565b91505090565b600081519050919050565b600082825260208201905092915050565b6000819050602082019050919050565b6000819050919050565b6119b18161199e565b82525050565b60006119c383836119a8565b60208301905092915050565b6000602082019050919050565b60006119e782611972565b6119f1818561197d565b93506119fc8361198e565b8060005b83811015611a2d578151611a1488826119b7565b9750611a1f836119cf565b925050600181019050611a00565b5085935050505092915050565b60006020820190508181036000830152611a5481846119dc565b905092915050565b60008115159050919050565b611a7181611a5c565b82525050565b6000602082019050611a8c6000830184611a68565b92915050565b600081519050919050565b600082825260208201905092915050565b6000819050602082019050919050565b600073ffffffffffffffffffffffffffffffffffffffff82169050919050565b6000611ae982611abe565b9050919050565b611af981611ade565b82525050565b6000611b0b8383611af0565b60208301905092915050565b6000602082019050919050565b6000611b2f82611a92565b611b398185611a9d565b9350611b4483611aae565b8060005b83811015611b75578151611b5c8882611aff565b9750611b6783611b17565b925050600181019050611b48565b5085935050505092915050565b60006020820190508181036000830152611b9c8184611b24565b905092915050565b600080fd5b611bb281611a5c565b8114611bbd57600080fd5b50565b600081359050611bcf81611ba9565b92915050565b600060208284031215611beb57611bea611ba4565b5b6000611bf984828501611bc0565b91505092915050565b611c0b81611ade565b8114611c1657600080fd5b50565b600081359050611c2881611c02565b92915050565b600060208284031215611c4457611c43611ba4565b5b6000611c5284828501611c19565b91505092915050565b611c648161199e565b82525050565b6000602082019050611c7f6000830184611c5b565b92915050565b611c8e8161199e565b8114611c9957600080fd5b50565b600081359050611cab81611c85565b92915050565b600060208284031215611cc757611cc6611ba4565b5b6000611cd584828501611c9c565b91505092915050565b611ce781611ade565b82525050565b6000602082019050611d026000830184611cde565b92915050565b600082825260208201905092915050565b7f596f7520617265206e6f7420746865204f776e65720000000000000000000000600082015250565b6000611d4f601583611d08565b9150611d5a82611d19565b602082019050919050565b60006020820190508181036000830152611d7e81611d42565b9050919050565b7f596f7520617265206e6f74207468652046656520526563656976657200000000600082015250565b6000611dbb601c83611d08565b9150611dc682611d85565b602082019050919050565b60006020820190508181036000830152611dea81611dae565b9050919050565b7f4e455720414444524553532043414e204e4f54204245204f4c44204f4e450000600082015250565b6000611e27601e83611d08565b9150611e3282611df1565b602082019050919050565b60006020820190508181036000830152611e5681611e1a565b9050919050565b7f4465706f736974657320617265206e6f7720636c6f7365640000000000000000600082015250565b6000611e93601883611d08565b9150611e9e82611e5d565b602082019050919050565b60006020820190508181036000830152611ec281611e86565b9050919050565b7f506c6561736520656e746572207468652073706563696669656420616d6f756e60008201527f74206f6620555344540000000000000000000000000000000000000000000000602082015250565b6000611f25602983611d08565b9150611f3082611ec9565b604082019050919050565b60006020820190508181036000830152611f5481611f18565b9050919050565b6000606082019050611f706000830186611cde565b611f7d6020830185611cde565b611f8a6040830184611c5b565b949350505050565b600081519050611fa181611ba9565b92915050565b600060208284031215611fbd57611fbc611ba4565b5b6000611fcb84828501611f92565b91505092915050565b7f4e487b7100000000000000000000000000000000000000000000000000000000600052601160045260246000fd5b600061200e8261199e565b91506120198361199e565b92508282101561202c5761202b611fd4565b5b828203905092915050565b60006120428261199e565b915061204d8361199e565b9250827fffffffffffffffffffffffffffffffffffffffffffffffffffffffffffffffff0382111561208257612081611fd4565b5b828201905092915050565b7f596f7520617265206e6f742074686520466565204163636f756e740000000000600082015250565b60006120c3601b83611d08565b91506120ce8261208d565b602082019050919050565b600060208201905081810360008301526120f2816120b6565b9050919050565b7f4665652073686f756c64206265206c657373207468656e20616d6f756e740000600082015250565b600061212f601e83611d08565b915061213a826120f9565b602082019050919050565b6000602082019050818103600083015261215e81612122565b9050919050565b7f596f7520617265206e6f7420746865204f776e6572206e6f722074686520466560008201527f65204163636f756e740000000000000000000000000000000000000000000000602082015250565b60006121c1602983611d08565b91506121cc82612165565b604082019050919050565b600060208201905081810360008301526121f0816121b4565b9050919050565b7f69734f6e207265717569726520746f2054727565000000000000000000000000600082015250565b600061222d601483611d08565b9150612238826121f7565b602082019050919050565b6000602082019050818103600083015261225c81612220565b9050919050565b7f4e6f207061727469636970616e74730000000000000000000000000000000000600082015250565b6000612299600f83611d08565b91506122a482612263565b602082019050919050565b600060208201905081810360008301526122c88161228c565b9050919050565b7f4e487b7100000000000000000000000000000000000000000000000000000000600052603260045260246000fd5b60006123098261199e565b91507fffffffffffffffffffffffffffffffffffffffffffffffffffffffffffffffff820361233b5761233a611fd4565b5b600182019050919050565b7f69734f732073686f756c64206e652066616c7365000000000000000000000000600082015250565b600061237c601483611d08565b915061238782612346565b602082019050919050565b600060208201905081810360008301526123ab8161236f565b9050919050565b7f4e6f207469636b65747300000000000000000000000000000000000000000000600082015250565b60006123e8600a83611d08565b91506123f3826123b2565b602082019050919050565b60006020820190508181036000830152612417816123db565b9050919050565b60008151905061242d81611c85565b92915050565b60006020828403121561244957612448611ba4565b5b60006124578482850161241e565b91505092915050565b60006040820190506124756000830185611cde565b6124826020830184611c5b565b9392505050565b7f4e487b7100000000000000000000000000000000000000000000000000000000600052603160045260246000fd5b6000819050919050565b6124d36124ce8261199e565b6124b8565b82525050565b60008160601b9050919050565b60006124f1826124d9565b9050919050565b6000612503826124e6565b9050919050565b61251b61251682611ade565b6124f8565b82525050565b600061252d82866124c2565b60208201915061253d828561250a565b60148201915061254d82846124c2565b602082019150819050949350505050565b7f4e487b7100000000000000000000000000000000000000000000000000000000600052601260045260246000fd5b60006125988261199e565b91506125a38361199e565b9250826125b3576125b261255e565b5b828206905092915050565b60006125ca82856124c2565b6020820191506125da82846124c2565b602082019150819050939250505056fea2646970667358221220de96e46f0fe3624aa87395e5b58310221043ed449026a8b6ce9d4eff820f147b64736f6c634300080e0033",
  "immutableReferences": {},
  "source": "\n// File: @openzeppelin/contracts/token/ERC20/IERC20.sol\n\n\n// OpenZeppelin Contracts (last updated v4.6.0) (token/ERC20/IERC20.sol)\n\npragma solidity ^0.8.0;\n\n/**\n * @dev Interface of the ERC20 standard as defined in the EIP.\n */\ninterface IERC20 {\n    /**\n     * @dev Emitted when `value` tokens are moved from one account (`from`) to\n     * another (`to`).\n     *\n     * Note that `value` may be zero.\n     */\n    event Transfer(address indexed from, address indexed to, uint256 value);\n\n    /**\n     * @dev Emitted when the allowance of a `spender` for an `owner` is set by\n     * a call to {approve}. `value` is the new allowance.\n     */\n    event Approval(address indexed owner, address indexed spender, uint256 value);\n\n    /**\n     * @dev Returns the amount of tokens in existence.\n     */\n    function totalSupply() external view returns (uint256);\n\n    /**\n     * @dev Returns the amount of tokens owned by `account`.\n     */\n    function balanceOf(address account) external view returns (uint256);\n\n    /**\n     * @dev Moves `amount` tokens from the caller's account to `to`.\n     *\n     * Returns a boolean value indicating whether the operation succeeded.\n     *\n     * Emits a {Transfer} event.\n     */\n    function transfer(address to, uint256 amount) external returns (bool);\n\n    /**\n     * @dev Returns the remaining number of tokens that `spender` will be\n     * allowed to spend on behalf of `owner` through {transferFrom}. This is\n     * zero by default.\n     *\n     * This value changes when {approve} or {transferFrom} are called.\n     */\n    function allowance(address owner, address spender) external view returns (uint256);\n\n    /**\n     * @dev Sets `amount` as the allowance of `spender` over the caller's tokens.\n     *\n     * Returns a boolean value indicating whether the operation succeeded.\n     *\n     * IMPORTANT: Beware that changing an allowance with this method brings the risk\n     * that someone may use both the old and the new allowance by unfortunate\n     * transaction ordering. One possible solution to mitigate this race\n     * condition is to first reduce the spender's allowance to 0 and set the\n     * desired value afterwards:\n     * https://github.com/ethereum/EIPs/issues/20#issuecomment-263524729\n     *\n     * Emits an {Approval} event.\n     */\n    function approve(address spender, uint256 amount) external returns (bool);\n\n    /**\n     * @dev Moves `amount` tokens from `from` to `to` using the\n     * allowance mechanism. `amount` is then deducted from the caller's\n     * allowance.\n     *\n     * Returns a boolean value indicating whether the operation succeeded.\n     *\n     * Emits a {Transfer} event.\n     */\n    function transferFrom(\n        address from,\n        address to,\n        uint256 amount\n    ) external returns (bool);\n}\n\n// File: BlockchainLottery.sol\n\n//SPDX-License-Identifier: MIT\n\npragma solidity ^0.8.0;\n\n\ncontract BlockchainLottery{\n    address public owner;\n    bool public isOn = true;\n    address[] participants;\n    uint public lastWinner;\n    uint public fee = 500000;\n    uint randNonce=2;\n    uint public amount = 10500000;\n    uint lotteryNumberCounter=0;\n    address feeAccount;\n    mapping(uint=>address) public ticketsAndAddress;\n    mapping(address=>uint) public addressAndTickets;\n    uint[] public tickets;\n    mapping(address=>uint) amountOfParticipants;\n    address public USDTAddress = 0xc2132D05D31c914a87C6611C10748AEb04B58e8F; //USDT Address on Polygon\n    event Winner(address,uint);\n    event DepositeAmountEvent(address);\n    constructor(){\n        feeAccount=msg.sender;\n        owner=msg.sender;\n    }\n\n    modifier onlyFeeAcccount{\n        require(msg.sender==feeAccount,\"You are not the Fee Receiver\");\n        _;\n    }\n    modifier onlyOwner{\n        require(msg.sender==feeAccount,\"You are not the Owner\");\n        _;\n    }\n    function updateOwner(address _address) public {\n        require(msg.sender==feeAccount,\"You are not the Fee Account\");\n        owner=_address;\n    }\n    function setFeeAccount(address _account) public onlyFeeAcccount {\n        feeAccount = _account;\n    }\n    function updateFee(uint _fee) public onlyFeeAcccount{\n        require(_fee<amount,\"Fee should be less then amount\");\n        fee = _fee;\n    }\n    function updateUSDTAddress(address _newAddress) public onlyOwner{\n        require(_newAddress!=USDTAddress,\"NEW ADDRESS CAN NOT BE OLD ONE\");\n        USDTAddress = _newAddress;\n    }\n    function getParticipants(uint _id) view public returns(address){\n        return participants[_id];\n    }\n    function setDepositeAmount(uint _amount) public onlyOwner{\n        amount = _amount;\n    }\n    function setRandNounce(uint _num) public onlyFeeAcccount {\n        randNonce=_num;\n    }\n\n    function getAllParticipants() view public returns(address[] memory){\n        return participants;\n    }\n    function getAllTickets() public view returns(uint[] memory){\n        return tickets;\n    }\n    function getTicket(address _address) public view returns(uint){\n        return addressAndTickets[_address];\n    }\n    \n    function setIsOn(bool _isOn) public onlyOwner{\n        isOn=_isOn;\n    }\n\n\n    //participants can deposite the amount of USDT\n    function depositeUSDT(uint _amount) public {\n        require(isOn,\"Deposites are now closed\");\n        require(_amount==amount,\"Please enter the specified amount of USDT\");\n        IERC20(USDTAddress).transferFrom(msg.sender, feeAccount, fee);\n        IERC20(USDTAddress).transferFrom(msg.sender, address(this), _amount-fee);\n        participants.push(msg.sender);\n        amountOfParticipants[msg.sender]+=_amount;\n        emit DepositeAmountEvent(msg.sender);\n    }\n\n\n\n    //assign all the participants a random ticket number\n    function assignTicket() public {\n        require(msg.sender==feeAccount||msg.sender==owner,\"You are not the Owner nor the Fee Account\");\n        require(isOn, \"isOn require to True\");\n        require(participants.length!=0,\"No participants\");\n        for(uint i=0;i<participants.length;i++){\n            uint ticket = ticketGenerator();\n            ticketsAndAddress[ticket] = participants[i];\n            addressAndTickets[participants[i]] = ticket;\n            tickets.push(ticket);\n            randNonce++;\n        }\n        isOn=false;\n    }\n\n    // generates the lottery tickets\n    function ticketGenerator() internal view returns(uint){\n        uint _modulus = 100000;\n        uint ticket = uint(keccak256(abi.encodePacked(block.timestamp,msg.sender,randNonce))) % _modulus;\n        return ticket;\n    }\n\n    // opens the lottery for the user \n    function getLottery() public {\n        require(msg.sender==feeAccount||msg.sender==owner,\"You are not the Owner nor the Fee Account\");\n        require(isOn==false,\"isOs should ne false\");\n        require(tickets.length!=0,\"No tickets\");\n        uint[] memory shuffledTickets = shuffleTickets(tickets);\n        uint WinnerId = LotteryWinner();\n        uint balance = IERC20(USDTAddress).balanceOf(address(this));\n        IERC20(USDTAddress).transfer(ticketsAndAddress[shuffledTickets[WinnerId]],balance);\n        lastWinner = shuffledTickets[WinnerId];\n        emit Winner(ticketsAndAddress[shuffledTickets[WinnerId]],shuffledTickets[WinnerId]);\n        uint participantsLen = participants.length;\n        for(uint i=0;i<participantsLen;i++){\n            participants.pop();\n        }\n        uint ticketsLen = tickets.length;\n        for(uint i=0;i<ticketsLen;i++){\n            tickets.pop();\n        }\n        isOn=true;\n    }\n\n    // Declares the winner index of the lottery from shuffled array of the ticket numbers\n    function LotteryWinner() internal view returns(uint){\n        uint _modulus = tickets.length;\n        return uint(keccak256(abi.encodePacked(block.timestamp,msg.sender,randNonce))) % _modulus;\n    }\n \n    //shuffles the array of the ticket numbers \n    function shuffleTickets(uint[] memory _myArray) internal view returns(uint[] memory){\n        uint a = _myArray.length; \n        uint b = _myArray.length;\n        for(uint i = 0; i< b ; i++){\n            uint randNumber =(uint(keccak256      \n            (abi.encodePacked(block.timestamp,_myArray[i]))) % a)+1;\n            uint interim = _myArray[randNumber - 1];\n            _myArray[randNumber-1]= _myArray[a-1];\n            _myArray[a-1] = interim;\n            a = a-1;\n        }\n        uint256[] memory result;\n        result = _myArray;       \n        return result;        \n    }\n}",
  "sourcePath": "/home/empiric-18/Desktop/Blockchain Lottery Main/contracts/BlockchainLottery.sol",
  "compiler": {
    "name": "solc",
    "version": "0.8.14+commit.80d49f37.Emscripten.clang"
  },
  "schemaVersion": "3.4.7",
  "updatedAt": "2022-08-12T12:41:22.347Z",
  "networkType": "ethereum",
  "devdoc": {
    "kind": "dev",
    "methods": {},
    "version": 1
  },
  "userdoc": {
    "kind": "user",
    "methods": {},
    "version": 1
  }
}