{
  "contractName": "BlockchainLottery",
  "abi": [
    {
      "inputs": [],
      "stateMutability": "nonpayable",
      "type": "constructor"
    },
    {
      "anonymous": false,
      "inputs": [
        {
          "indexed": false,
          "internalType": "address",
          "name": "",
          "type": "address"
        }
      ],
      "name": "DepositeAmountEvent",
      "type": "event"
    },
    {
      "anonymous": false,
      "inputs": [
        {
          "indexed": false,
          "internalType": "address",
          "name": "",
          "type": "address"
        },
        {
          "indexed": false,
          "internalType": "uint256",
          "name": "",
          "type": "uint256"
        }
      ],
      "name": "Winner",
      "type": "event"
    },
    {
      "inputs": [
        {
          "internalType": "address",
          "name": "",
          "type": "address"
        }
      ],
      "name": "addressAndTickets",
      "outputs": [
        {
          "internalType": "uint256",
          "name": "",
          "type": "uint256"
        }
      ],
      "stateMutability": "view",
      "type": "function"
    },
    {
      "inputs": [],
      "name": "amount",
      "outputs": [
        {
          "internalType": "uint256",
          "name": "",
          "type": "uint256"
        }
      ],
      "stateMutability": "view",
      "type": "function"
    },
    {
      "inputs": [],
      "name": "fee",
      "outputs": [
        {
          "internalType": "uint256",
          "name": "",
          "type": "uint256"
        }
      ],
      "stateMutability": "view",
      "type": "function"
    },
    {
      "inputs": [],
      "name": "feeAccount",
      "outputs": [
        {
          "internalType": "address",
          "name": "",
          "type": "address"
        }
      ],
      "stateMutability": "view",
      "type": "function"
    },
    {
      "inputs": [],
      "name": "isOn",
      "outputs": [
        {
          "internalType": "bool",
          "name": "",
          "type": "bool"
        }
      ],
      "stateMutability": "view",
      "type": "function"
    },
    {
      "inputs": [],
      "name": "lastWinner",
      "outputs": [
        {
          "internalType": "uint256",
          "name": "",
          "type": "uint256"
        }
      ],
      "stateMutability": "view",
      "type": "function"
    },
    {
      "inputs": [],
      "name": "manager",
      "outputs": [
        {
          "internalType": "address",
          "name": "",
          "type": "address"
        }
      ],
      "stateMutability": "view",
      "type": "function"
    },
    {
      "inputs": [],
      "name": "owner",
      "outputs": [
        {
          "internalType": "address",
          "name": "",
          "type": "address"
        }
      ],
      "stateMutability": "view",
      "type": "function"
    },
    {
      "inputs": [
        {
          "internalType": "uint256",
          "name": "",
          "type": "uint256"
        }
      ],
      "name": "participants",
      "outputs": [
        {
          "internalType": "address",
          "name": "",
          "type": "address"
        }
      ],
      "stateMutability": "view",
      "type": "function"
    },
    {
      "inputs": [
        {
          "internalType": "uint256",
          "name": "",
          "type": "uint256"
        }
      ],
      "name": "primeUser",
      "outputs": [
        {
          "internalType": "address",
          "name": "",
          "type": "address"
        }
      ],
      "stateMutability": "view",
      "type": "function"
    },
    {
      "inputs": [
        {
          "internalType": "address",
          "name": "",
          "type": "address"
        }
      ],
      "name": "primeUserTickets",
      "outputs": [
        {
          "internalType": "uint256",
          "name": "",
          "type": "uint256"
        }
      ],
      "stateMutability": "view",
      "type": "function"
    },
    {
      "inputs": [
        {
          "internalType": "address",
          "name": "",
          "type": "address"
        }
      ],
      "name": "primeUserToken",
      "outputs": [
        {
          "internalType": "address",
          "name": "",
          "type": "address"
        }
      ],
      "stateMutability": "view",
      "type": "function"
    },
    {
      "inputs": [
        {
          "internalType": "uint256",
          "name": "",
          "type": "uint256"
        }
      ],
      "name": "tickets",
      "outputs": [
        {
          "internalType": "uint256",
          "name": "",
          "type": "uint256"
        }
      ],
      "stateMutability": "view",
      "type": "function"
    },
    {
      "inputs": [
        {
          "internalType": "uint256",
          "name": "",
          "type": "uint256"
        }
      ],
      "name": "ticketsAndAddress",
      "outputs": [
        {
          "internalType": "address",
          "name": "",
          "type": "address"
        }
      ],
      "stateMutability": "view",
      "type": "function"
    },
    {
      "inputs": [
        {
          "internalType": "uint256",
          "name": "",
          "type": "uint256"
        }
      ],
      "name": "tokens",
      "outputs": [
        {
          "internalType": "address",
          "name": "",
          "type": "address"
        }
      ],
      "stateMutability": "view",
      "type": "function"
    },
    {
      "inputs": [
        {
          "internalType": "address",
          "name": "",
          "type": "address"
        }
      ],
      "name": "totalTokenPrize",
      "outputs": [
        {
          "internalType": "uint256",
          "name": "",
          "type": "uint256"
        }
      ],
      "stateMutability": "view",
      "type": "function"
    },
    {
      "inputs": [
        {
          "internalType": "uint256",
          "name": "_amount",
          "type": "uint256"
        },
        {
          "internalType": "uint256",
          "name": "_noOfTicket",
          "type": "uint256"
        },
        {
          "internalType": "address",
          "name": "_tokenAddress",
          "type": "address"
        }
      ],
      "name": "primeUserBuyTicket",
      "outputs": [],
      "stateMutability": "nonpayable",
      "type": "function"
    },
    {
      "inputs": [
        {
          "internalType": "uint256",
          "name": "_amount",
          "type": "uint256"
        },
        {
          "internalType": "address",
          "name": "_tokenAddress",
          "type": "address"
        }
      ],
      "name": "buyTickets",
      "outputs": [],
      "stateMutability": "nonpayable",
      "type": "function"
    },
    {
      "inputs": [],
      "name": "assignTicket",
      "outputs": [],
      "stateMutability": "nonpayable",
      "type": "function"
    },
    {
      "inputs": [],
      "name": "getLottery",
      "outputs": [],
      "stateMutability": "nonpayable",
      "type": "function"
    },
    {
      "inputs": [
        {
          "internalType": "uint256",
          "name": "i",
          "type": "uint256"
        }
      ],
      "name": "remove",
      "outputs": [],
      "stateMutability": "nonpayable",
      "type": "function"
    },
    {
      "inputs": [
        {
          "internalType": "address",
          "name": "_participant",
          "type": "address"
        }
      ],
      "name": "isParticipant",
      "outputs": [
        {
          "internalType": "bool",
          "name": "",
          "type": "bool"
        }
      ],
      "stateMutability": "view",
      "type": "function"
    },
    {
      "inputs": [
        {
          "internalType": "address",
          "name": "_token",
          "type": "address"
        }
      ],
      "name": "isToken",
      "outputs": [
        {
          "internalType": "bool",
          "name": "",
          "type": "bool"
        }
      ],
      "stateMutability": "view",
      "type": "function"
    },
    {
      "inputs": [
        {
          "internalType": "address",
          "name": "_address",
          "type": "address"
        }
      ],
      "name": "updateOwner",
      "outputs": [],
      "stateMutability": "nonpayable",
      "type": "function"
    },
    {
      "inputs": [
        {
          "internalType": "address",
          "name": "_account",
          "type": "address"
        }
      ],
      "name": "setFeeAccount",
      "outputs": [],
      "stateMutability": "nonpayable",
      "type": "function"
    },
    {
      "inputs": [
        {
          "internalType": "uint256",
          "name": "_fee",
          "type": "uint256"
        }
      ],
      "name": "updateFee",
      "outputs": [],
      "stateMutability": "nonpayable",
      "type": "function"
    },
    {
      "inputs": [
        {
          "internalType": "uint256",
          "name": "_id",
          "type": "uint256"
        }
      ],
      "name": "getParticipants",
      "outputs": [
        {
          "internalType": "address",
          "name": "",
          "type": "address"
        }
      ],
      "stateMutability": "view",
      "type": "function"
    },
    {
      "inputs": [
        {
          "internalType": "uint256",
          "name": "_amount",
          "type": "uint256"
        }
      ],
      "name": "setDepositeAmount",
      "outputs": [],
      "stateMutability": "nonpayable",
      "type": "function"
    },
    {
      "inputs": [
        {
          "internalType": "uint256",
          "name": "_num",
          "type": "uint256"
        }
      ],
      "name": "setRandNounce",
      "outputs": [],
      "stateMutability": "nonpayable",
      "type": "function"
    },
    {
      "inputs": [],
      "name": "getAllParticipants",
      "outputs": [
        {
          "internalType": "address[]",
          "name": "",
          "type": "address[]"
        }
      ],
      "stateMutability": "view",
      "type": "function"
    },
    {
      "inputs": [],
      "name": "getAllTickets",
      "outputs": [
        {
          "internalType": "uint256[]",
          "name": "",
          "type": "uint256[]"
        }
      ],
      "stateMutability": "view",
      "type": "function"
    },
    {
      "inputs": [],
      "name": "getAllTokens",
      "outputs": [
        {
          "internalType": "address[]",
          "name": "",
          "type": "address[]"
        }
      ],
      "stateMutability": "view",
      "type": "function"
    },
    {
      "inputs": [],
      "name": "getAllPrimeUsers",
      "outputs": [
        {
          "internalType": "address[]",
          "name": "",
          "type": "address[]"
        }
      ],
      "stateMutability": "view",
      "type": "function"
    },
    {
      "inputs": [],
      "name": "getTokensLen",
      "outputs": [
        {
          "internalType": "uint256",
          "name": "",
          "type": "uint256"
        }
      ],
      "stateMutability": "view",
      "type": "function"
    },
    {
      "inputs": [
        {
          "internalType": "address",
          "name": "_address",
          "type": "address"
        }
      ],
      "name": "getTicket",
      "outputs": [
        {
          "internalType": "uint256",
          "name": "",
          "type": "uint256"
        }
      ],
      "stateMutability": "view",
      "type": "function"
    },
    {
      "inputs": [
        {
          "internalType": "bool",
          "name": "_isOn",
          "type": "bool"
        }
      ],
      "name": "setIsOn",
      "outputs": [],
      "stateMutability": "nonpayable",
      "type": "function"
    }
  ],
  "bytecode": "0x60806040526001600260146101000a81548160ff0219169083151502179055506207a1206008556216e3606009556002600a556000600b5534801561004357600080fd5b5073c3cb976b7d9b37ef56de49a4c8d96138f540c48d600160006101000a81548173ffffffffffffffffffffffffffffffffffffffff021916908373ffffffffffffffffffffffffffffffffffffffff160217905550336000806101000a81548173ffffffffffffffffffffffffffffffffffffffff021916908373ffffffffffffffffffffffffffffffffffffffff16021790555033600260006101000a81548173ffffffffffffffffffffffffffffffffffffffff021916908373ffffffffffffffffffffffffffffffffffffffff1602179055506135f6806101296000396000f3fe608060405234801561001057600080fd5b506004361061021c5760003560e01c8063880cdc3111610125578063b0e19912116100ad578063cbc2cce71161007c578063cbc2cce71461068b578063ddca3f4314610695578063e41f8b53146106b3578063fdad3a5f146106cf578063fe188184146106eb5761021c565b8063b0e19912146105f1578063b4e5e4151461060d578063b73205c01461062b578063c1e3bd3e1461065b5761021c565b8063929066f5116100f4578063929066f51461054b578063966002481461057b578063a37150f014610585578063a4204833146105b5578063aa8c217c146105d35761021c565b8063880cdc31146104c55780638b46295a146104e15780638da5cb5b146105115780639012c4a81461052f5761021c565b806341779c00116101a85780634cc82215116101775780634cc82215146103fb5780634f64b2be1461041757806350b447121461044757806365e17c9d1461047757806371e313bd146104955761021c565b806341779c00146103615780634717dea914610391578063481c6a75146103c15780634b023cf8146103df5761021c565b806328f098ec116101ef57806328f098ec146102ab5780632a5c792a146102c757806335c1d349146102e55780633617b1d5146103155780633923aada146103455761021c565b806303e96fe314610221578063175bbecf1461023f578063195ec9ee1461025d57806319f373611461027b575b600080fd5b610229610709565b6040516102369190612982565b60405180910390f35b610247610761565b60405161025491906129bf565b60405180910390f35b610265610774565b6040516102729190612aca565b60405180910390f35b61029560048036038101906102909190612b1d565b610802565b6040516102a291906129bf565b60405180910390f35b6102c560048036038101906102c09190612b76565b6108b0565b005b6102cf610d42565b6040516102dc9190612aca565b60405180910390f35b6102ff60048036038101906102fa9190612bc9565b610dd0565b60405161030c9190612c05565b60405180910390f35b61032f600480360381019061032a9190612b1d565b610e0f565b60405161033c9190612c2f565b60405180910390f35b61035f600480360381019061035a9190612c76565b610e27565b005b61037b60048036038101906103769190612b1d565b610e44565b6040516103889190612c2f565b60405180910390f35b6103ab60048036038101906103a69190612b1d565b610e5c565b6040516103b89190612c2f565b60405180910390f35b6103c9610ea5565b6040516103d69190612c05565b60405180910390f35b6103f960048036038101906103f49190612b1d565b610ecb565b005b61041560048036038101906104109190612bc9565b610f0f565b005b610431600480360381019061042c9190612bc9565b61102d565b60405161043e9190612c05565b60405180910390f35b610461600480360381019061045c9190612bc9565b61106c565b60405161046e9190612c2f565b60405180910390f35b61047f611090565b60405161048c9190612c05565b60405180910390f35b6104af60048036038101906104aa9190612bc9565b6110b6565b6040516104bc9190612c05565b60405180910390f35b6104df60048036038101906104da9190612b1d565b6110e9565b005b6104fb60048036038101906104f69190612b1d565b6111bc565b6040516105089190612c2f565b60405180910390f35b6105196111d4565b6040516105269190612c05565b60405180910390f35b61054960048036038101906105449190612bc9565b6111f8565b005b61056560048036038101906105609190612b1d565b611246565b60405161057291906129bf565b60405180910390f35b6105836112f4565b005b61059f600480360381019061059a9190612b1d565b611612565b6040516105ac9190612c05565b60405180910390f35b6105bd611645565b6040516105ca9190612c2f565b60405180910390f35b6105db611652565b6040516105e89190612c2f565b60405180910390f35b61060b60048036038101906106069190612bc9565b611658565b005b610615611662565b6040516106229190612aca565b60405180910390f35b61064560048036038101906106409190612bc9565b6116f0565b6040516106529190612c05565b60405180910390f35b61067560048036038101906106709190612bc9565b61172f565b6040516106829190612c05565b60405180910390f35b610693611777565b005b61069d61232f565b6040516106aa9190612c2f565b60405180910390f35b6106cd60048036038101906106c89190612bc9565b612335565b005b6106e960048036038101906106e49190612ca3565b61233f565b005b6106f36126c0565b6040516107009190612c2f565b60405180910390f35b6060600480548060200260200160405190810160405280929190818152602001828054801561075757602002820191906000526020600020905b815481526020019060010190808311610743575b5050505050905090565b600260149054906101000a900460ff1681565b606060038054806020026020016040519081016040528092919081815260200182805480156107f857602002820191906000526020600020905b8160009054906101000a900473ffffffffffffffffffffffffffffffffffffffff1673ffffffffffffffffffffffffffffffffffffffff16815260200190600101908083116107ae575b5050505050905090565b600080600090505b6005805490508110156108a5578273ffffffffffffffffffffffffffffffffffffffff166005828154811061084257610841612ce3565b5b9060005260206000200160009054906101000a900473ffffffffffffffffffffffffffffffffffffffff1673ffffffffffffffffffffffffffffffffffffffff16036108925760019150506108ab565b808061089d90612d41565b91505061080a565b50600090505b919050565b600260149054906101000a900460ff166108ff576040517f08c379a00000000000000000000000000000000000000000000000000000000081526004016108f690612de6565b60405180910390fd5b6009548314610943576040517f08c379a000000000000000000000000000000000000000000000000000000000815260040161093a90612e78565b60405180910390fd5b61094c33611246565b1561098c576040517f08c379a000000000000000000000000000000000000000000000000000000000815260040161098390612ee4565b60405180910390fd5b61099581610802565b6109fd576005819080600181540180825580915050600190039060005260206000200160009091909190916101000a81548173ffffffffffffffffffffffffffffffffffffffff021916908373ffffffffffffffffffffffffffffffffffffffff1602179055505b8073ffffffffffffffffffffffffffffffffffffffff166323b872dd33600160009054906101000a900473ffffffffffffffffffffffffffffffffffffffff1685600854610a4b9190612f04565b6040518463ffffffff1660e01b8152600401610a6993929190612f5e565b6020604051808303816000875af1158015610a88573d6000803e3d6000fd5b505050506040513d601f19601f82011682018060405250810190610aac9190612faa565b508073ffffffffffffffffffffffffffffffffffffffff166323b872dd33308560085488610ada9190612fd7565b610ae49190612f04565b6040518463ffffffff1660e01b8152600401610b0293929190612f5e565b6020604051808303816000875af1158015610b21573d6000803e3d6000fd5b505050506040513d601f19601f82011682018060405250810190610b459190612faa565b506003339080600181540180825580915050600190039060005260206000200160009091909190916101000a81548173ffffffffffffffffffffffffffffffffffffffff021916908373ffffffffffffffffffffffffffffffffffffffff160217905550600f339080600181540180825580915050600190039060005260206000200160009091909190916101000a81548173ffffffffffffffffffffffffffffffffffffffff021916908373ffffffffffffffffffffffffffffffffffffffff160217905550600182610c199190612fd7565b600e60003373ffffffffffffffffffffffffffffffffffffffff1673ffffffffffffffffffffffffffffffffffffffff1681526020019081526020016000208190555060085483610c6a9190612fd7565b600660008373ffffffffffffffffffffffffffffffffffffffff1673ffffffffffffffffffffffffffffffffffffffff1681526020019081526020016000206000828254610cb8919061300b565b9250508190555080601060003373ffffffffffffffffffffffffffffffffffffffff1673ffffffffffffffffffffffffffffffffffffffff16815260200190815260200160002060006101000a81548173ffffffffffffffffffffffffffffffffffffffff021916908373ffffffffffffffffffffffffffffffffffffffff160217905550505050565b60606005805480602002602001604051908101604052809291908181526020018280548015610dc657602002820191906000526020600020905b8160009054906101000a900473ffffffffffffffffffffffffffffffffffffffff1673ffffffffffffffffffffffffffffffffffffffff1681526020019060010190808311610d7c575b5050505050905090565b60038181548110610de057600080fd5b906000526020600020016000915054906101000a900473ffffffffffffffffffffffffffffffffffffffff1681565b600e6020528060005260406000206000915090505481565b80600260146101000a81548160ff02191690831515021790555050565b600d6020528060005260406000206000915090505481565b6000600d60008373ffffffffffffffffffffffffffffffffffffffff1673ffffffffffffffffffffffffffffffffffffffff168152602001908152602001600020549050919050565b600260009054906101000a900473ffffffffffffffffffffffffffffffffffffffff1681565b80600160006101000a81548173ffffffffffffffffffffffffffffffffffffffff021916908373ffffffffffffffffffffffffffffffffffffffff16021790555050565b5b6001600f80549050610f229190612fd7565b811015610fe357600f600182610f38919061300b565b81548110610f4957610f48612ce3565b5b9060005260206000200160009054906101000a900473ffffffffffffffffffffffffffffffffffffffff16600f8281548110610f8857610f87612ce3565b5b9060005260206000200160006101000a81548173ffffffffffffffffffffffffffffffffffffffff021916908373ffffffffffffffffffffffffffffffffffffffff1602179055508080610fdb90612d41565b915050610f10565b600f805480610ff557610ff4613061565b5b6001900381819060005260206000200160006101000a81549073ffffffffffffffffffffffffffffffffffffffff0219169055905550565b6005818154811061103d57600080fd5b906000526020600020016000915054906101000a900473ffffffffffffffffffffffffffffffffffffffff1681565b6004818154811061107c57600080fd5b906000526020600020016000915090505481565b600160009054906101000a900473ffffffffffffffffffffffffffffffffffffffff1681565b600c6020528060005260406000206000915054906101000a900473ffffffffffffffffffffffffffffffffffffffff1681565b600160009054906101000a900473ffffffffffffffffffffffffffffffffffffffff1673ffffffffffffffffffffffffffffffffffffffff163373ffffffffffffffffffffffffffffffffffffffff1614611179576040517f08c379a0000000000000000000000000000000000000000000000000000000008152600401611170906130dc565b60405180910390fd5b806000806101000a81548173ffffffffffffffffffffffffffffffffffffffff021916908373ffffffffffffffffffffffffffffffffffffffff16021790555050565b60066020528060005260406000206000915090505481565b60008054906101000a900473ffffffffffffffffffffffffffffffffffffffff1681565b600954811061123c576040517f08c379a000000000000000000000000000000000000000000000000000000000815260040161123390613148565b60405180910390fd5b8060088190555050565b600080600090505b6003805490508110156112e9578273ffffffffffffffffffffffffffffffffffffffff166003828154811061128657611285612ce3565b5b9060005260206000200160009054906101000a900473ffffffffffffffffffffffffffffffffffffffff1673ffffffffffffffffffffffffffffffffffffffff16036112d65760019150506112ef565b80806112e190612d41565b91505061124e565b50600090505b919050565b600260009054906101000a900473ffffffffffffffffffffffffffffffffffffffff1673ffffffffffffffffffffffffffffffffffffffff163373ffffffffffffffffffffffffffffffffffffffff16148061139b575060008054906101000a900473ffffffffffffffffffffffffffffffffffffffff1673ffffffffffffffffffffffffffffffffffffffff163373ffffffffffffffffffffffffffffffffffffffff16145b6113da576040517f08c379a00000000000000000000000000000000000000000000000000000000081526004016113d1906131da565b60405180910390fd5b600260149054906101000a900460ff16611429576040517f08c379a000000000000000000000000000000000000000000000000000000000815260040161142090613246565b60405180910390fd5b600060038054905003611471576040517f08c379a0000000000000000000000000000000000000000000000000000000008152600401611468906132b2565b60405180910390fd5b60005b6003805490508110156115f457600061148b6126c6565b9050600382815481106114a1576114a0612ce3565b5b9060005260206000200160009054906101000a900473ffffffffffffffffffffffffffffffffffffffff16600c600083815260200190815260200160002060006101000a81548173ffffffffffffffffffffffffffffffffffffffff021916908373ffffffffffffffffffffffffffffffffffffffff16021790555080600d60006003858154811061153657611535612ce3565b5b9060005260206000200160009054906101000a900473ffffffffffffffffffffffffffffffffffffffff1673ffffffffffffffffffffffffffffffffffffffff1673ffffffffffffffffffffffffffffffffffffffff168152602001908152602001600020819055506004819080600181540180825580915050600190039060005260206000200160009091909190915055600a60008154809291906115db90612d41565b91905055505080806115ec90612d41565b915050611474565b506000600260146101000a81548160ff021916908315150217905550565b60106020528060005260406000206000915054906101000a900473ffffffffffffffffffffffffffffffffffffffff1681565b6000600580549050905090565b60095481565b8060098190555050565b6060600f8054806020026020016040519081016040528092919081815260200182805480156116e657602002820191906000526020600020905b8160009054906101000a900473ffffffffffffffffffffffffffffffffffffffff1673ffffffffffffffffffffffffffffffffffffffff168152602001906001019080831161169c575b5050505050905090565b600f818154811061170057600080fd5b906000526020600020016000915054906101000a900473ffffffffffffffffffffffffffffffffffffffff1681565b60006003828154811061174557611744612ce3565b5b9060005260206000200160009054906101000a900473ffffffffffffffffffffffffffffffffffffffff169050919050565b600160009054906101000a900473ffffffffffffffffffffffffffffffffffffffff1673ffffffffffffffffffffffffffffffffffffffff163373ffffffffffffffffffffffffffffffffffffffff16148061181e575060008054906101000a900473ffffffffffffffffffffffffffffffffffffffff1673ffffffffffffffffffffffffffffffffffffffff163373ffffffffffffffffffffffffffffffffffffffff16145b61185d576040517f08c379a000000000000000000000000000000000000000000000000000000000815260040161185490613344565b60405180910390fd5b60001515600260149054906101000a900460ff161515146118b3576040517f08c379a00000000000000000000000000000000000000000000000000000000081526004016118aa906133b0565b60405180910390fd5b6000600480549050036118fb576040517f08c379a00000000000000000000000000000000000000000000000000000000081526004016118f29061341c565b60405180910390fd5b6000611956600480548060200260200160405190810160405280929190818152602001828054801561194c57602002820191906000526020600020905b815481526020019060010190808311611938575b5050505050612716565b9050600061196261286e565b905060005b600580549050811015611b0e576005818154811061198857611987612ce3565b5b9060005260206000200160009054906101000a900473ffffffffffffffffffffffffffffffffffffffff1673ffffffffffffffffffffffffffffffffffffffff1663a9059cbb600c60008686815181106119e5576119e4612ce3565b5b6020026020010151815260200190815260200160002060009054906101000a900473ffffffffffffffffffffffffffffffffffffffff166006600060058681548110611a3457611a33612ce3565b5b9060005260206000200160009054906101000a900473ffffffffffffffffffffffffffffffffffffffff1673ffffffffffffffffffffffffffffffffffffffff1673ffffffffffffffffffffffffffffffffffffffff168152602001908152602001600020546040518363ffffffff1660e01b8152600401611ab792919061343c565b6020604051808303816000875af1158015611ad6573d6000803e3d6000fd5b505050506040513d601f19601f82011682018060405250810190611afa9190612faa565b508080611b0690612d41565b915050611967565b50818181518110611b2257611b21612ce3565b5b60200260200101516007819055507f9c2270628a9b29d30ae96b6c4c14ed646ee134febdce38a5b77f2bde9cea2e20600c6000848481518110611b6857611b67612ce3565b5b6020026020010151815260200190815260200160002060009054906101000a900473ffffffffffffffffffffffffffffffffffffffff16838381518110611bb257611bb1612ce3565b5b6020026020010151604051611bc892919061343c565b60405180910390a16000600380549050905060005b81811015611c3f576003805480611bf757611bf6613061565b5b6001900381819060005260206000200160006101000a81549073ffffffffffffffffffffffffffffffffffffffff021916905590558080611c3790612d41565b915050611bdd565b506000600480549050905060005b81811015611c90576004805480611c6757611c66613061565b5b600190038181906000526020600020016000905590558080611c8890612d41565b915050611c4d565b506000600580549050905060005b81811015611d3c5760006006600060058481548110611cc057611cbf612ce3565b5b9060005260206000200160009054906101000a900473ffffffffffffffffffffffffffffffffffffffff1673ffffffffffffffffffffffffffffffffffffffff1673ffffffffffffffffffffffffffffffffffffffff168152602001908152602001600020819055508080611d3490612d41565b915050611c9e565b506000600580549050905060005b81811015611dac576005805480611d6457611d63613061565b5b6001900381819060005260206000200160006101000a81549073ffffffffffffffffffffffffffffffffffffffff021916905590558080611da490612d41565b915050611d4a565b506001600260146101000a81548160ff0219169083151502179055506000600f80549050905060005b600f8054905081101561228b576000600e6000600f8481548110611dfc57611dfb612ce3565b5b9060005260206000200160009054906101000a900473ffffffffffffffffffffffffffffffffffffffff1673ffffffffffffffffffffffffffffffffffffffff1673ffffffffffffffffffffffffffffffffffffffff16815260200190815260200160002054111561224e576003600f8281548110611e7e57611e7d612ce3565b5b9060005260206000200160009054906101000a900473ffffffffffffffffffffffffffffffffffffffff169080600181540180825580915050600190039060005260206000200160009091909190916101000a81548173ffffffffffffffffffffffffffffffffffffffff021916908373ffffffffffffffffffffffffffffffffffffffff160217905550600e6000600f8381548110611f2157611f20612ce3565b5b9060005260206000200160009054906101000a900473ffffffffffffffffffffffffffffffffffffffff1673ffffffffffffffffffffffffffffffffffffffff1673ffffffffffffffffffffffffffffffffffffffff1681526020019081526020016000206000815480929190611f9790613465565b919050555061204260106000600f8481548110611fb757611fb6612ce3565b5b9060005260206000200160009054906101000a900473ffffffffffffffffffffffffffffffffffffffff1673ffffffffffffffffffffffffffffffffffffffff1673ffffffffffffffffffffffffffffffffffffffff16815260200190815260200160002060009054906101000a900473ffffffffffffffffffffffffffffffffffffffff16610802565b61214757600560106000600f84815481106120605761205f612ce3565b5b9060005260206000200160009054906101000a900473ffffffffffffffffffffffffffffffffffffffff1673ffffffffffffffffffffffffffffffffffffffff1673ffffffffffffffffffffffffffffffffffffffff16815260200190815260200160002060009054906101000a900473ffffffffffffffffffffffffffffffffffffffff169080600181540180825580915050600190039060005260206000200160009091909190916101000a81548173ffffffffffffffffffffffffffffffffffffffff021916908373ffffffffffffffffffffffffffffffffffffffff1602179055505b6008546009546121579190612fd7565b6006600060106000600f868154811061217357612172612ce3565b5b9060005260206000200160009054906101000a900473ffffffffffffffffffffffffffffffffffffffff1673ffffffffffffffffffffffffffffffffffffffff1673ffffffffffffffffffffffffffffffffffffffff16815260200190815260200160002060009054906101000a900473ffffffffffffffffffffffffffffffffffffffff1673ffffffffffffffffffffffffffffffffffffffff1673ffffffffffffffffffffffffffffffffffffffff1681526020019081526020016000206000828254612242919061300b565b92505081905550612278565b60118190806001815401808255809150506001900390600052602060002001600090919091909150555b808061228390612d41565b915050611dd5565b5060005b6011805490508110156122d6576122c3601182815481106122b3576122b2612ce3565b5b9060005260206000200154610f0f565b80806122ce90612d41565b91505061228f565b50601180549050905060005b818110156123255760118054806122fc576122fb613061565b5b60019003818190600052602060002001600090559055808061231d90612d41565b9150506122e2565b5050505050505050565b60085481565b80600a8190555050565b600260149054906101000a900460ff1661238e576040517f08c379a000000000000000000000000000000000000000000000000000000000815260040161238590612de6565b60405180910390fd5b60095482146123d2576040517f08c379a00000000000000000000000000000000000000000000000000000000081526004016123c990612e78565b60405180910390fd5b6123db33611246565b1561241b576040517f08c379a000000000000000000000000000000000000000000000000000000000815260040161241290612ee4565b60405180910390fd5b61242481610802565b61248c576005819080600181540180825580915050600190039060005260206000200160009091909190916101000a81548173ffffffffffffffffffffffffffffffffffffffff021916908373ffffffffffffffffffffffffffffffffffffffff1602179055505b8073ffffffffffffffffffffffffffffffffffffffff166323b872dd33600160009054906101000a900473ffffffffffffffffffffffffffffffffffffffff166008546040518463ffffffff1660e01b81526004016124ed93929190612f5e565b6020604051808303816000875af115801561250c573d6000803e3d6000fd5b505050506040513d601f19601f820116820180604052508101906125309190612faa565b508073ffffffffffffffffffffffffffffffffffffffff166323b872dd33306008548661255d9190612fd7565b6040518463ffffffff1660e01b815260040161257b93929190612f5e565b6020604051808303816000875af115801561259a573d6000803e3d6000fd5b505050506040513d601f19601f820116820180604052508101906125be9190612faa565b506003339080600181540180825580915050600190039060005260206000200160009091909190916101000a81548173ffffffffffffffffffffffffffffffffffffffff021916908373ffffffffffffffffffffffffffffffffffffffff160217905550600854826126309190612fd7565b600660008373ffffffffffffffffffffffffffffffffffffffff1673ffffffffffffffffffffffffffffffffffffffff168152602001908152602001600020600082825461267e919061300b565b925050819055507f4f7d5e68462c76e2693e9f56aaa9e9dec62a0558f74233ccc40145e2819dabb1336040516126b49190612c05565b60405180910390a15050565b60075481565b600080620186a090506000814233600a546040516020016126e9939291906134f7565b6040516020818303038152906040528051906020012060001c61270c9190613563565b9050809250505090565b606060008251905060008351905060005b8181101561285d5760006001844288858151811061274857612747612ce3565b5b6020026020010151604051602001612761929190613594565b6040516020818303038152906040528051906020012060001c6127849190613563565b61278e919061300b565b90506000866001836127a09190612fd7565b815181106127b1576127b0612ce3565b5b60200260200101519050866001866127c99190612fd7565b815181106127da576127d9612ce3565b5b6020026020010151876001846127f09190612fd7565b8151811061280157612800612ce3565b5b602002602001018181525050808760018761281c9190612fd7565b8151811061282d5761282c612ce3565b5b6020026020010181815250506001856128469190612fd7565b94505050808061285590612d41565b915050612727565b506060849050809350505050919050565b6000806004805490509050804233600a54604051602001612891939291906134f7565b6040516020818303038152906040528051906020012060001c6128b49190613563565b91505090565b600081519050919050565b600082825260208201905092915050565b6000819050602082019050919050565b6000819050919050565b6128f9816128e6565b82525050565b600061290b83836128f0565b60208301905092915050565b6000602082019050919050565b600061292f826128ba565b61293981856128c5565b9350612944836128d6565b8060005b8381101561297557815161295c88826128ff565b975061296783612917565b925050600181019050612948565b5085935050505092915050565b6000602082019050818103600083015261299c8184612924565b905092915050565b60008115159050919050565b6129b9816129a4565b82525050565b60006020820190506129d460008301846129b0565b92915050565b600081519050919050565b600082825260208201905092915050565b6000819050602082019050919050565b600073ffffffffffffffffffffffffffffffffffffffff82169050919050565b6000612a3182612a06565b9050919050565b612a4181612a26565b82525050565b6000612a538383612a38565b60208301905092915050565b6000602082019050919050565b6000612a77826129da565b612a8181856129e5565b9350612a8c836129f6565b8060005b83811015612abd578151612aa48882612a47565b9750612aaf83612a5f565b925050600181019050612a90565b5085935050505092915050565b60006020820190508181036000830152612ae48184612a6c565b905092915050565b600080fd5b612afa81612a26565b8114612b0557600080fd5b50565b600081359050612b1781612af1565b92915050565b600060208284031215612b3357612b32612aec565b5b6000612b4184828501612b08565b91505092915050565b612b53816128e6565b8114612b5e57600080fd5b50565b600081359050612b7081612b4a565b92915050565b600080600060608486031215612b8f57612b8e612aec565b5b6000612b9d86828701612b61565b9350506020612bae86828701612b61565b9250506040612bbf86828701612b08565b9150509250925092565b600060208284031215612bdf57612bde612aec565b5b6000612bed84828501612b61565b91505092915050565b612bff81612a26565b82525050565b6000602082019050612c1a6000830184612bf6565b92915050565b612c29816128e6565b82525050565b6000602082019050612c446000830184612c20565b92915050565b612c53816129a4565b8114612c5e57600080fd5b50565b600081359050612c7081612c4a565b92915050565b600060208284031215612c8c57612c8b612aec565b5b6000612c9a84828501612c61565b91505092915050565b60008060408385031215612cba57612cb9612aec565b5b6000612cc885828601612b61565b9250506020612cd985828601612b08565b9150509250929050565b7f4e487b7100000000000000000000000000000000000000000000000000000000600052603260045260246000fd5b7f4e487b7100000000000000000000000000000000000000000000000000000000600052601160045260246000fd5b6000612d4c826128e6565b91507fffffffffffffffffffffffffffffffffffffffffffffffffffffffffffffffff8203612d7e57612d7d612d12565b5b600182019050919050565b600082825260208201905092915050565b7f416c6c205469636b65747320536f6c64204f7574000000000000000000000000600082015250565b6000612dd0601483612d89565b9150612ddb82612d9a565b602082019050919050565b60006020820190508181036000830152612dff81612dc3565b9050919050565b7f506c656173652050726f76696465722041637475616c207072696365206f662060008201527f7469636b65747300000000000000000000000000000000000000000000000000602082015250565b6000612e62602783612d89565b9150612e6d82612e06565b604082019050919050565b60006020820190508181036000830152612e9181612e55565b9050919050565b7f596f752061726520416c72656164792061207061727469636970616e74000000600082015250565b6000612ece601d83612d89565b9150612ed982612e98565b602082019050919050565b60006020820190508181036000830152612efd81612ec1565b9050919050565b6000612f0f826128e6565b9150612f1a836128e6565b9250817fffffffffffffffffffffffffffffffffffffffffffffffffffffffffffffffff0483118215151615612f5357612f52612d12565b5b828202905092915050565b6000606082019050612f736000830186612bf6565b612f806020830185612bf6565b612f8d6040830184612c20565b949350505050565b600081519050612fa481612c4a565b92915050565b600060208284031215612fc057612fbf612aec565b5b6000612fce84828501612f95565b91505092915050565b6000612fe2826128e6565b9150612fed836128e6565b92508282101561300057612fff612d12565b5b828203905092915050565b6000613016826128e6565b9150613021836128e6565b9250827fffffffffffffffffffffffffffffffffffffffffffffffffffffffffffffffff0382111561305657613055612d12565b5b828201905092915050565b7f4e487b7100000000000000000000000000000000000000000000000000000000600052603160045260246000fd5b7f596f7520617265206e6f742074686520466565204163636f756e740000000000600082015250565b60006130c6601b83612d89565b91506130d182613090565b602082019050919050565b600060208201905081810360008301526130f5816130b9565b9050919050565b7f4665652073686f756c64206265206c657373207468656e20616d6f756e740000600082015250565b6000613132601e83612d89565b915061313d826130fc565b602082019050919050565b6000602082019050818103600083015261316181613125565b9050919050565b7f596f7520617265206e6f7420746865204f776e6572206e6f7220746865204d6160008201527f6e61676572000000000000000000000000000000000000000000000000000000602082015250565b60006131c4602583612d89565b91506131cf82613168565b604082019050919050565b600060208201905081810360008301526131f3816131b7565b9050919050565b7f69734f6e207265717569726520746f2054727565000000000000000000000000600082015250565b6000613230601483612d89565b915061323b826131fa565b602082019050919050565b6000602082019050818103600083015261325f81613223565b9050919050565b7f4e6f207061727469636970616e74730000000000000000000000000000000000600082015250565b600061329c600f83612d89565b91506132a782613266565b602082019050919050565b600060208201905081810360008301526132cb8161328f565b9050919050565b7f596f7520617265206e6f7420746865204f776e6572206e6f722074686520466560008201527f65204163636f756e740000000000000000000000000000000000000000000000602082015250565b600061332e602983612d89565b9150613339826132d2565b604082019050919050565b6000602082019050818103600083015261335d81613321565b9050919050565b7f69734f6e2073686f756c64206e652066616c7365000000000000000000000000600082015250565b600061339a601483612d89565b91506133a582613364565b602082019050919050565b600060208201905081810360008301526133c98161338d565b9050919050565b7f4e6f207469636b65747300000000000000000000000000000000000000000000600082015250565b6000613406600a83612d89565b9150613411826133d0565b602082019050919050565b60006020820190508181036000830152613435816133f9565b9050919050565b60006040820190506134516000830185612bf6565b61345e6020830184612c20565b9392505050565b6000613470826128e6565b91506000820361348357613482612d12565b5b600182039050919050565b6000819050919050565b6134a96134a4826128e6565b61348e565b82525050565b60008160601b9050919050565b60006134c7826134af565b9050919050565b60006134d9826134bc565b9050919050565b6134f16134ec82612a26565b6134ce565b82525050565b60006135038286613498565b60208201915061351382856134e0565b6014820191506135238284613498565b602082019150819050949350505050565b7f4e487b7100000000000000000000000000000000000000000000000000000000600052601260045260246000fd5b600061356e826128e6565b9150613579836128e6565b92508261358957613588613534565b5b828206905092915050565b60006135a08285613498565b6020820191506135b08284613498565b602082019150819050939250505056fea2646970667358221220fc82c41027f59cb514f37bd69f01c3b1be2672c92e8850511ac7ed36024379ec64736f6c634300080e0033",
  "immutableReferences": {},
  "source": "//SPDX-License-Identifier: MIT\n\n// File: @openzeppelin/contracts/token/ERC20/IERC20.sol\n\n// OpenZeppelin Contracts (last updated v4.6.0) (token/ERC20/IERC20.sol)\n\npragma solidity ^0.8.0;\n\n/**\n * @dev Interface of the ERC20 standard as defined in the EIP.\n */\ninterface IERC20 {\n    /**\n     * @dev Emitted when `value` tokens are moved from one account (`from`) to\n     * another (`to`).\n     *\n     * Note that `value` may be zero.\n     */\n    event Transfer(address indexed from, address indexed to, uint256 value);\n\n    /**\n     * @dev Emitted when the allowance of a `spender` for an `owner` is set by\n     * a call to {approve}. `value` is the new allowance.\n     */\n    event Approval(\n        address indexed owner,\n        address indexed spender,\n        uint256 value\n    );\n\n    /**\n     * @dev Returns the amount of tokens in existence.\n     */\n    function totalSupply() external view returns (uint256);\n\n    /**\n     * @dev Returns the amount of tokens owned by `account`.\n     */\n    function balanceOf(address account) external view returns (uint256);\n\n    /**\n     * @dev Moves `amount` tokens from the caller's account to `to`.\n     *\n     * Returns a boolean value indicating whether the operation succeeded.\n     *\n     * Emits a {Transfer} event.\n     */\n    function transfer(address to, uint256 amount) external returns (bool);\n\n    /**\n     * @dev Returns the remaining number of tokens that `spender` will be\n     * allowed to spend on behalf of `owner` through {transferFrom}. This is\n     * zero by default.\n     *\n     * This value changes when {approve} or {transferFrom} are called.\n     */\n    function allowance(address owner, address spender)\n        external\n        view\n        returns (uint256);\n\n    /**\n     * @dev Sets `amount` as the allowance of `spender` over the caller's tokens.\n     *\n     * Returns a boolean value indicating whether the operation succeeded.\n     *\n     * IMPORTANT: Beware that changing an allowance with this method brings the risk\n     * that someone may use both the old and the new allowance by unfortunate\n     * transaction ordering. One possible solution to mitigate this race\n     * condition is to first reduce the spender's allowance to 0 and set the\n     * desired value afterwards:\n     * https://github.com/ethereum/EIPs/issues/20#issuecomment-263524729\n     *\n     * Emits an {Approval} event.\n     */\n    function approve(address spender, uint256 amount) external returns (bool);\n\n    /**\n     * @dev Moves `amount` tokens from `from` to `to` using the\n     * allowance mechanism. `amount` is then deducted from the caller's\n     * allowance.\n     *\n     * Returns a boolean value indicating whether the operation succeeded.\n     *\n     * Emits a {Transfer} event.\n     */\n    function transferFrom(\n        address from,\n        address to,\n        uint256 amount\n    ) external returns (bool);\n}\n\n// File: BlockchainLottery.sol\n\npragma solidity ^0.8.0;\n\ncontract BlockchainLottery {\n    address public owner;\n    address public feeAccount;\n    address public manager;\n\n    bool public isOn = true;\n\n    address[] public participants;\n    uint256[] public tickets;\n\n    address[] public tokens;\n    mapping(address => uint256) public totalTokenPrize;\n\n    uint256 public lastWinner;\n\n    uint256 public fee = 500000;\n    uint256 public amount = 1500000;\n    uint256 randNonce = 2;\n\n    uint256 lotteryNumberCounter = 0;\n\n    mapping(uint256 => address) public ticketsAndAddress;\n    mapping(address => uint256) public addressAndTickets;\n\n    mapping(address => uint256) public primeUserTickets;\n    address[] public primeUser;\n    mapping(address => address) public primeUserToken;\n\n    event Winner(address, uint256);\n    event DepositeAmountEvent(address);\n\n    constructor() {\n        feeAccount = 0xC3Cb976B7d9b37Ef56De49a4C8d96138f540C48D;\n        owner = msg.sender;\n        manager = msg.sender;\n    }\n\n    // USER FUNCTIONS\n\n    // Prime User Can Buy Ticket from here\n    function primeUserBuyTicket(\n        uint256 _amount,\n        uint256 _noOfTicket,\n        address _tokenAddress\n    ) public {\n        require(isOn, \"All Tickets Sold Out\"); // Check if the contract is still selling tickets\n        require(_amount == amount, \"Please Provider Actual price of tickets\"); // Check if the User paying complete Ticket Price\n        require(!isParticipant(msg.sender), \"You are Already a participant\"); // Check if User has already participated in the lottery or not\n\n        if (!isToken(_tokenAddress)) {\n            // Check if the Token user using is already in the record or not\n            tokens.push(_tokenAddress); // add token to record if token is not present in records\n        }\n        // transfer the fee amount from the user's deposit to the Fee Account\n        IERC20(_tokenAddress).transferFrom(\n            msg.sender,\n            feeAccount,\n            fee * _noOfTicket\n        );\n        // transfer the Amount of lottery to the contract\n        IERC20(_tokenAddress).transferFrom(\n            msg.sender,\n            address(this),\n            (_amount - fee) * _noOfTicket\n        );\n        // add user to the Participants list\n        participants.push(msg.sender);\n        // add uset to the list of Prime User\n        primeUser.push(msg.sender);\n        // initialize the users ticket balance\n        primeUserTickets[msg.sender] = _noOfTicket - 1;\n        // incrementing the prize of lottery buy token address\n        totalTokenPrize[_tokenAddress] += _amount - fee;\n        // add the user balance\n        primeUserToken[msg.sender] = _tokenAddress;\n    }\n\n    //participants can buyTickets the amount of USDT\n    function buyTickets(uint256 _amount, address _tokenAddress) public {\n        require(isOn, \"All Tickets Sold Out\"); // Check if the contract is still selling tickets\n        require(_amount == amount, \"Please Provider Actual price of tickets\"); // Check if the User paying complete Ticket Price\n        require(!isParticipant(msg.sender), \"You are Already a participant\"); // Check if User has already participated in the lottery or not\n\n        if (!isToken(_tokenAddress)) {\n            // Check if the Token user using is already in the record or not\n            tokens.push(_tokenAddress); // add token to record if token is not present in records\n        }\n        // transfer the fee amount from the user's deposit to the Fee Account\n        IERC20(_tokenAddress).transferFrom(msg.sender, feeAccount, fee);\n        // transfer the Amount of lottery to the contract\n        IERC20(_tokenAddress).transferFrom(\n            msg.sender,\n            address(this),\n            _amount - fee\n        );\n        // adding participant to the List of participant\n        participants.push(msg.sender);\n        // incrementing the Total token amount in the contract\n        totalTokenPrize[_tokenAddress] += _amount - fee;\n        // Emiting the Token Deposite Event\n        emit DepositeAmountEvent(msg.sender);\n    }\n\n    // MANAGER FUNCTIONS\n\n    // assigning lottery tickets to the users at 23:55\n    function assignTicket() public {\n        require(\n            msg.sender == manager || msg.sender == owner,\n            \"You are not the Owner nor the Manager\"\n        );\n        require(isOn, \"isOn require to True\");\n        require(participants.length != 0, \"No participants\");\n        for (uint256 i = 0; i < participants.length; i++) {\n            uint256 ticket = ticketGenerator();\n            ticketsAndAddress[ticket] = participants[i];\n            addressAndTickets[participants[i]] = ticket;\n            tickets.push(ticket);\n            randNonce++;\n        }\n        isOn = false;\n    }\n\n    // opens the lottery for the user\n    uint[] detained;\n\n    function getLottery() public {\n        require(\n            msg.sender == feeAccount || msg.sender == owner,\n            \"You are not the Owner nor the Fee Account\"\n        );\n        require(isOn == false, \"isOn should ne false\");\n        require(tickets.length != 0, \"No tickets\");\n        //shuffling tickets\n        uint256[] memory shuffledTickets = shuffleTickets(tickets);\n        // geting the lottery winner\n        uint256 WinnerId = LotteryWinner();\n        // sending lottery price to winner\n\n        for (uint256 i = 0; i < tokens.length; i++) {\n            IERC20(tokens[i]).transfer(\n                ticketsAndAddress[shuffledTickets[WinnerId]],\n                totalTokenPrize[tokens[i]]\n            );\n        }\n\n        //getting winner for the event\n        lastWinner = shuffledTickets[WinnerId];\n        emit Winner(\n            ticketsAndAddress[shuffledTickets[WinnerId]],\n            shuffledTickets[WinnerId]\n        );\n        // cleaning the participants and ticket from the array\n        uint256 participantsLen = participants.length;\n        for (uint256 i = 0; i < participantsLen; i++) {\n            participants.pop();\n        }\n        uint256 ticketsLen = tickets.length;\n        for (uint256 i = 0; i < ticketsLen; i++) {\n            tickets.pop();\n        }\n        uint256 tokensLen = tokens.length;\n        for (uint256 i = 0; i < tokensLen; i++) {\n            totalTokenPrize[tokens[i]] = 0;\n        }\n        uint256 tokensL = tokens.length;\n        for (uint256 i = 0; i < tokensL; i++) {\n            tokens.pop();\n        }\n        // setting lottery status to ON\n        isOn = true;\n        uint lens = primeUser.length; \n        for (uint256 i = 0; i < primeUser.length; i++) {\n            if(primeUserTickets[primeUser[i]]>0){\n                participants.push(primeUser[i]);\n                primeUserTickets[primeUser[i]]--;\n                if (!isToken(primeUserToken[primeUser[i]])) {\n                    tokens.push(primeUserToken[primeUser[i]]);\n                }\n                totalTokenPrize[primeUserToken[primeUser[i]]] += (amount - fee);\n            } else {\n                detained.push(i);\n            }\n        }\n        for(uint i=0;i<detained.length;i++){\n            remove(detained[i]);\n        }\n        lens = detained.length;\n        for(uint i=0;i<lens;i++){\n            detained.pop();\n        }\n    }\n\n    // UTILITIES FUNCTION\n    function remove(uint256 i) public {\n        while (i < primeUser.length - 1) {\n            primeUser[i] = primeUser[i + 1];\n            i++;\n        }\n        primeUser.pop();\n    }\n\n    // Check if the participant is already bought the token or not\n    function isParticipant(address _participant) public view returns (bool) {\n        for (uint256 i = 0; i < participants.length; i++) {\n            if (participants[i] == _participant) {\n                return true;\n            }\n        }\n        return false;\n    }\n\n    // Check if token is already present in the Record or not\n    function isToken(address _token) public view returns (bool) {\n        for (uint256 i = 0; i < tokens.length; i++) {\n            if (tokens[i] == _token) {\n                return true;\n            }\n        }\n        return false;\n    }\n\n    // Ticket Generator Function for generating tickets for Participants (Randomizer)\n    function ticketGenerator() internal view returns (uint256) {\n        uint256 _modulus = 100000;\n        uint256 ticket = uint256(\n            keccak256(abi.encodePacked(block.timestamp, msg.sender, randNonce))\n        ) % _modulus;\n        return ticket;\n    }\n\n    //shuffles the array of the ticket numbers\n    function shuffleTickets(uint256[] memory _myArray)\n        internal\n        view\n        returns (uint256[] memory)\n    {\n        uint256 a = _myArray.length;\n        uint256 b = _myArray.length;\n        for (uint256 i = 0; i < b; i++) {\n            uint256 randNumber = (uint256(\n                keccak256(abi.encodePacked(block.timestamp, _myArray[i]))\n            ) % a) + 1;\n            uint256 interim = _myArray[randNumber - 1];\n            _myArray[randNumber - 1] = _myArray[a - 1];\n            _myArray[a - 1] = interim;\n            a = a - 1;\n        }\n        uint256[] memory result;\n        result = _myArray;\n        return result;\n    }\n\n    // Declare the winner\n    function LotteryWinner() internal view returns (uint256) {\n        uint256 _modulus = tickets.length;\n        return\n            uint256(\n                keccak256(\n                    abi.encodePacked(block.timestamp, msg.sender, randNonce)\n                )\n            ) % _modulus;\n    }\n\n    // OWNER Functions\n\n    function updateOwner(address _address) public {\n        require(msg.sender == feeAccount, \"You are not the Fee Account\");\n        owner = _address;\n    }\n\n    function setFeeAccount(address _account) public {\n        feeAccount = _account;\n    }\n\n    function updateFee(uint256 _fee) public {\n        require(_fee < amount, \"Fee should be less then amount\");\n        fee = _fee;\n    }\n\n    function getParticipants(uint256 _id) public view returns (address) {\n        return participants[_id];\n    }\n\n    function setDepositeAmount(uint256 _amount) public {\n        amount = _amount;\n    }\n\n    function setRandNounce(uint256 _num) public {\n        randNonce = _num;\n    }\n\n    function getAllParticipants() public view returns (address[] memory) {\n        return participants;\n    }\n\n    function getAllTickets() public view returns (uint256[] memory) {\n        return tickets;\n    }\n\n    function getAllTokens() public view returns (address[] memory) {\n        return tokens;\n    }\n\n    function getAllPrimeUsers() public view returns (address[] memory) {\n        return primeUser;\n    }\n\n    function getTokensLen() public view returns (uint256) {\n        return tokens.length;\n    }\n\n    function getTicket(address _address) public view returns (uint256) {\n        return addressAndTickets[_address];\n    }\n\n    function setIsOn(bool _isOn) public {\n        isOn = _isOn;\n    }\n}\n",
  "sourcePath": "/home/empiric-18/Desktop/Blockchain Lottery/Blockchain Lottery Main/contracts/BlockchainLottery.sol",
  "compiler": {
    "name": "solc",
    "version": "0.8.14+commit.80d49f37.Emscripten.clang"
  },
  "schemaVersion": "3.4.7",
  "updatedAt": "2022-10-06T11:32:59.883Z",
  "devdoc": {
    "kind": "dev",
    "methods": {},
    "version": 1
  },
  "userdoc": {
    "kind": "user",
    "methods": {},
    "version": 1
  }
}