{
    "contractName": "BlockchainLottery",
    "abi": [
        {
            "inputs": [],
            "stateMutability": "nonpayable",
            "type": "constructor"
        },
        {
            "anonymous": false,
            "inputs": [
                {
                    "indexed": false,
                    "internalType": "address",
                    "name": "",
                    "type": "address"
                }
            ],
            "name": "DepositeAmountEvent",
            "type": "event"
        },
        {
            "anonymous": false,
            "inputs": [
                {
                    "indexed": false,
                    "internalType": "address",
                    "name": "",
                    "type": "address"
                },
                {
                    "indexed": false,
                    "internalType": "uint256",
                    "name": "",
                    "type": "uint256"
                }
            ],
            "name": "Winner",
            "type": "event"
        },
        {
            "inputs": [
                {
                    "internalType": "address",
                    "name": "",
                    "type": "address"
                }
            ],
            "name": "addressAndTickets",
            "outputs": [
                {
                    "internalType": "uint256",
                    "name": "",
                    "type": "uint256"
                }
            ],
            "stateMutability": "view",
            "type": "function"
        },
        {
            "inputs": [],
            "name": "amount",
            "outputs": [
                {
                    "internalType": "uint256",
                    "name": "",
                    "type": "uint256"
                }
            ],
            "stateMutability": "view",
            "type": "function"
        },
        {
            "inputs": [],
            "name": "assignTicket",
            "outputs": [],
            "stateMutability": "nonpayable",
            "type": "function"
        },
        {
            "inputs": [
                {
                    "internalType": "uint256",
                    "name": "_amount",
                    "type": "uint256"
                },
                {
                    "internalType": "address",
                    "name": "_tokenAddress",
                    "type": "address"
                }
            ],
            "name": "buyTickets",
            "outputs": [],
            "stateMutability": "nonpayable",
            "type": "function"
        },
        {
            "inputs": [],
            "name": "fee",
            "outputs": [
                {
                    "internalType": "uint256",
                    "name": "",
                    "type": "uint256"
                }
            ],
            "stateMutability": "view",
            "type": "function"
        },
        {
            "inputs": [],
            "name": "feeAccount",
            "outputs": [
                {
                    "internalType": "address",
                    "name": "",
                    "type": "address"
                }
            ],
            "stateMutability": "view",
            "type": "function"
        },
        {
            "inputs": [],
            "name": "getAllParticipants",
            "outputs": [
                {
                    "internalType": "address[]",
                    "name": "",
                    "type": "address[]"
                }
            ],
            "stateMutability": "view",
            "type": "function"
        },
        {
            "inputs": [],
            "name": "getAllPrimeUsers",
            "outputs": [
                {
                    "internalType": "address[]",
                    "name": "",
                    "type": "address[]"
                }
            ],
            "stateMutability": "view",
            "type": "function"
        },
        {
            "inputs": [],
            "name": "getAllTickets",
            "outputs": [
                {
                    "internalType": "uint256[]",
                    "name": "",
                    "type": "uint256[]"
                }
            ],
            "stateMutability": "view",
            "type": "function"
        },
        {
            "inputs": [],
            "name": "getAllTokens",
            "outputs": [
                {
                    "internalType": "address[]",
                    "name": "",
                    "type": "address[]"
                }
            ],
            "stateMutability": "view",
            "type": "function"
        },
        {
            "inputs": [],
            "name": "getLottery",
            "outputs": [],
            "stateMutability": "nonpayable",
            "type": "function"
        },
        {
            "inputs": [
                {
                    "internalType": "uint256",
                    "name": "_id",
                    "type": "uint256"
                }
            ],
            "name": "getParticipants",
            "outputs": [
                {
                    "internalType": "address",
                    "name": "",
                    "type": "address"
                }
            ],
            "stateMutability": "view",
            "type": "function"
        },
        {
            "inputs": [
                {
                    "internalType": "address",
                    "name": "_address",
                    "type": "address"
                }
            ],
            "name": "getTicket",
            "outputs": [
                {
                    "internalType": "uint256",
                    "name": "",
                    "type": "uint256"
                }
            ],
            "stateMutability": "view",
            "type": "function"
        },
        {
            "inputs": [],
            "name": "getTokensLen",
            "outputs": [
                {
                    "internalType": "uint256",
                    "name": "",
                    "type": "uint256"
                }
            ],
            "stateMutability": "view",
            "type": "function"
        },
        {
            "inputs": [],
            "name": "isOn",
            "outputs": [
                {
                    "internalType": "bool",
                    "name": "",
                    "type": "bool"
                }
            ],
            "stateMutability": "view",
            "type": "function"
        },
        {
            "inputs": [
                {
                    "internalType": "address",
                    "name": "_participant",
                    "type": "address"
                }
            ],
            "name": "isParticipant",
            "outputs": [
                {
                    "internalType": "bool",
                    "name": "",
                    "type": "bool"
                }
            ],
            "stateMutability": "view",
            "type": "function"
        },
        {
            "inputs": [
                {
                    "internalType": "address",
                    "name": "_token",
                    "type": "address"
                }
            ],
            "name": "isToken",
            "outputs": [
                {
                    "internalType": "bool",
                    "name": "",
                    "type": "bool"
                }
            ],
            "stateMutability": "view",
            "type": "function"
        },
        {
            "inputs": [],
            "name": "lastWinner",
            "outputs": [
                {
                    "internalType": "uint256",
                    "name": "",
                    "type": "uint256"
                }
            ],
            "stateMutability": "view",
            "type": "function"
        },
        {
            "inputs": [],
            "name": "manager",
            "outputs": [
                {
                    "internalType": "address",
                    "name": "",
                    "type": "address"
                }
            ],
            "stateMutability": "view",
            "type": "function"
        },
        {
            "inputs": [],
            "name": "owner",
            "outputs": [
                {
                    "internalType": "address",
                    "name": "",
                    "type": "address"
                }
            ],
            "stateMutability": "view",
            "type": "function"
        },
        {
            "inputs": [
                {
                    "internalType": "uint256",
                    "name": "",
                    "type": "uint256"
                }
            ],
            "name": "participants",
            "outputs": [
                {
                    "internalType": "address",
                    "name": "",
                    "type": "address"
                }
            ],
            "stateMutability": "view",
            "type": "function"
        },
        {
            "inputs": [
                {
                    "internalType": "uint256",
                    "name": "",
                    "type": "uint256"
                }
            ],
            "name": "primeUser",
            "outputs": [
                {
                    "internalType": "address",
                    "name": "",
                    "type": "address"
                }
            ],
            "stateMutability": "view",
            "type": "function"
        },
        {
            "inputs": [
                {
                    "internalType": "uint256",
                    "name": "_amount",
                    "type": "uint256"
                },
                {
                    "internalType": "uint256",
                    "name": "_noOfTicket",
                    "type": "uint256"
                },
                {
                    "internalType": "address",
                    "name": "_tokenAddress",
                    "type": "address"
                }
            ],
            "name": "primeUserBuyTicket",
            "outputs": [],
            "stateMutability": "nonpayable",
            "type": "function"
        },
        {
            "inputs": [
                {
                    "internalType": "address",
                    "name": "",
                    "type": "address"
                }
            ],
            "name": "primeUserTickets",
            "outputs": [
                {
                    "internalType": "uint256",
                    "name": "",
                    "type": "uint256"
                }
            ],
            "stateMutability": "view",
            "type": "function"
        },
        {
            "inputs": [
                {
                    "internalType": "address",
                    "name": "",
                    "type": "address"
                }
            ],
            "name": "primeUserToken",
            "outputs": [
                {
                    "internalType": "address",
                    "name": "",
                    "type": "address"
                }
            ],
            "stateMutability": "view",
            "type": "function"
        },
        {
            "inputs": [
                {
                    "internalType": "uint256",
                    "name": "_amount",
                    "type": "uint256"
                }
            ],
            "name": "setDepositeAmount",
            "outputs": [],
            "stateMutability": "nonpayable",
            "type": "function"
        },
        {
            "inputs": [
                {
                    "internalType": "address",
                    "name": "_account",
                    "type": "address"
                }
            ],
            "name": "setFeeAccount",
            "outputs": [],
            "stateMutability": "nonpayable",
            "type": "function"
        },
        {
            "inputs": [
                {
                    "internalType": "bool",
                    "name": "_isOn",
                    "type": "bool"
                }
            ],
            "name": "setIsOn",
            "outputs": [],
            "stateMutability": "nonpayable",
            "type": "function"
        },
        {
            "inputs": [
                {
                    "internalType": "uint256",
                    "name": "_num",
                    "type": "uint256"
                }
            ],
            "name": "setRandNounce",
            "outputs": [],
            "stateMutability": "nonpayable",
            "type": "function"
        },
        {
            "inputs": [
                {
                    "internalType": "uint256",
                    "name": "",
                    "type": "uint256"
                }
            ],
            "name": "tickets",
            "outputs": [
                {
                    "internalType": "uint256",
                    "name": "",
                    "type": "uint256"
                }
            ],
            "stateMutability": "view",
            "type": "function"
        },
        {
            "inputs": [
                {
                    "internalType": "uint256",
                    "name": "",
                    "type": "uint256"
                }
            ],
            "name": "ticketsAndAddress",
            "outputs": [
                {
                    "internalType": "address",
                    "name": "",
                    "type": "address"
                }
            ],
            "stateMutability": "view",
            "type": "function"
        },
        {
            "inputs": [
                {
                    "internalType": "uint256",
                    "name": "",
                    "type": "uint256"
                }
            ],
            "name": "tokens",
            "outputs": [
                {
                    "internalType": "address",
                    "name": "",
                    "type": "address"
                }
            ],
            "stateMutability": "view",
            "type": "function"
        },
        {
            "inputs": [
                {
                    "internalType": "address",
                    "name": "",
                    "type": "address"
                }
            ],
            "name": "totalTokenPrize",
            "outputs": [
                {
                    "internalType": "uint256",
                    "name": "",
                    "type": "uint256"
                }
            ],
            "stateMutability": "view",
            "type": "function"
        },
        {
            "inputs": [
                {
                    "internalType": "uint256",
                    "name": "_fee",
                    "type": "uint256"
                }
            ],
            "name": "updateFee",
            "outputs": [],
            "stateMutability": "nonpayable",
            "type": "function"
        },
        {
            "inputs": [
                {
                    "internalType": "address",
                    "name": "_address",
                    "type": "address"
                }
            ],
            "name": "updateOwner",
            "outputs": [],
            "stateMutability": "nonpayable",
            "type": "function"
        }
    ],
    "bytecode": "60806040526002805460ff60a01b1916600160a01b1781556207a1206008556216e360600955600a556000600b5534801561003957600080fd5b50600180546001600160a01b031990811673c3cb976b7d9b37ef56de49a4c8d96138f540c48d179091556000805482163390811790915560028054909216179055611eae806100896000396000f3fe608060405234801561001057600080fd5b50600436106102115760003560e01c8063880cdc3111610125578063b0e19912116100ad578063cbc2cce71161007c578063cbc2cce7146104ff578063ddca3f4314610507578063e41f8b5314610510578063fdad3a5f14610523578063fe1881841461053657600080fd5b8063b0e19912146104be578063b4e5e415146104d1578063b73205c0146104d9578063c1e3bd3e146104ec57600080fd5b8063929066f5116100f4578063929066f514610469578063966002481461047c578063a37150f014610484578063a4204833146104ad578063aa8c217c146104b557600080fd5b8063880cdc31146104105780638b46295a146104235780638da5cb5b146104435780639012c4a81461045657600080fd5b80633923aada116101a85780634b023cf8116101775780634b023cf81461037e5780634f64b2be146103ae57806350b44712146103c157806365e17c9d146103d457806371e313bd146103e757600080fd5b80633923aada146102f657806341779c00146103225780634717dea914610342578063481c6a751461036b57600080fd5b806328f098ec116101e457806328f098ec146102805780632a5c792a1461029557806335c1d3491461029d5780633617b1d5146102c857600080fd5b806303e96fe314610216578063175bbecf14610234578063195ec9ee1461025857806319f373611461026d575b600080fd5b61021e61053f565b60405161022b9190611bcc565b60405180910390f35b60025461024890600160a01b900460ff1681565b604051901515815260200161022b565b610260610597565b60405161022b9190611c10565b61024861027b366004611c6d565b6105f8565b61029361028e366004611c88565b610661565b005b6102606109aa565b6102b06102ab366004611cbd565b610a0a565b6040516001600160a01b03909116815260200161022b565b6102e86102d6366004611c6d565b600e6020526000908152604090205481565b60405190815260200161022b565b610293610304366004611ce7565b60028054911515600160a01b0260ff60a01b19909216919091179055565b6102e8610330366004611c6d565b600d6020526000908152604090205481565b6102e8610350366004611c6d565b6001600160a01b03166000908152600d602052604090205490565b6002546102b0906001600160a01b031681565b61029361038c366004611c6d565b600180546001600160a01b0319166001600160a01b0392909216919091179055565b6102b06103bc366004611cbd565b610a34565b6102e86103cf366004611cbd565b610a44565b6001546102b0906001600160a01b031681565b6102b06103f5366004611cbd565b600c602052600090815260409020546001600160a01b031681565b61029361041e366004611c6d565b610a65565b6102e8610431366004611c6d565b60066020526000908152604090205481565b6000546102b0906001600160a01b031681565b610293610464366004611cbd565b610ae1565b610248610477366004611c6d565b610b37565b610293610b97565b6102b0610492366004611c6d565b6010602052600090815260409020546001600160a01b031681565b6005546102e8565b6102e860095481565b6102936104cc366004611cbd565b600955565b610260610db7565b6102b06104e7366004611cbd565b610e17565b6102b06104fa366004611cbd565b610e27565b610293610e57565b6102e860085481565b61029361051e366004611cbd565b600a55565b610293610531366004611d04565b6116ee565b6102e860075481565b6060600480548060200260200160405190810160405280929190818152602001828054801561058d57602002820191906000526020600020905b815481526020019060010190808311610579575b5050505050905090565b6060600380548060200260200160405190810160405280929190818152602001828054801561058d57602002820191906000526020600020905b81546001600160a01b031681526001909101906020018083116105d1575050505050905090565b6000805b60055481101561065857826001600160a01b03166005828154811061062357610623611d30565b6000918252602090912001546001600160a01b0316036106465750600192915050565b8061065081611d5c565b9150506105fc565b50600092915050565b600254600160a01b900460ff166106b65760405162461bcd60e51b8152602060048201526014602482015273105b1b08151a58dad95d1cc814dbdb190813dd5d60621b60448201526064015b60405180910390fd5b60095483146106d75760405162461bcd60e51b81526004016106ad90611d75565b6106e033610b37565b1561072d5760405162461bcd60e51b815260206004820152601d60248201527f596f752061726520416c72656164792061207061727469636970616e7400000060448201526064016106ad565b610736816105f8565b61078657600580546001810182556000919091527f036b6384b5eca791c62761152d0c79bb0604c104a5fb6f4eb0703f3154bb3db00180546001600160a01b0319166001600160a01b0383161790555b806001600160a01b03166323b872dd33600160009054906101000a90046001600160a01b0316856008546107ba9190611dbc565b6040518463ffffffff1660e01b81526004016107d893929190611dd9565b6020604051808303816000875af11580156107f7573d6000803e3d6000fd5b505050506040513d601f19601f8201168201806040525081019061081b9190611dfd565b50806001600160a01b03166323b872dd3330856008548861083c9190611e1a565b6108469190611dbc565b6040518463ffffffff1660e01b815260040161086493929190611dd9565b6020604051808303816000875af1158015610883573d6000803e3d6000fd5b505050506040513d601f19601f820116820180604052508101906108a79190611dfd565b506003805460018082019092557fc2575a0e9e593c00f959f8c92f12db2869c3395a3b0502d05e2516446f71f85b018054336001600160a01b03199182168117909255600f805480850182556000919091527f8d1108e10bcb7c27dddfc02ed9d693a074039d026cf4ea4240b40f7d581ac802018054909116909117905561092f9083611e1a565b336000908152600e602052604090205560085461094c9084611e1a565b6001600160a01b03821660009081526006602052604081208054909190610974908490611e2d565b909155505033600090815260106020526040902080546001600160a01b0319166001600160a01b03929092169190911790555050565b6060600580548060200260200160405190810160405280929190818152602001828054801561058d576020028201919060005260206000209081546001600160a01b031681526001909101906020018083116105d1575050505050905090565b60038181548110610a1a57600080fd5b6000918252602090912001546001600160a01b0316905081565b60058181548110610a1a57600080fd5b60048181548110610a5457600080fd5b600091825260209091200154905081565b6001546001600160a01b03163314610abf5760405162461bcd60e51b815260206004820152601b60248201527f596f7520617265206e6f742074686520466565204163636f756e74000000000060448201526064016106ad565b600080546001600160a01b0319166001600160a01b0392909216919091179055565b6009548110610b325760405162461bcd60e51b815260206004820152601e60248201527f4665652073686f756c64206265206c657373207468656e20616d6f756e74000060448201526064016106ad565b600855565b6000805b60035481101561065857826001600160a01b031660038281548110610b6257610b62611d30565b6000918252602090912001546001600160a01b031603610b855750600192915050565b80610b8f81611d5c565b915050610b3b565b6002546001600160a01b0316331480610bba57506000546001600160a01b031633145b610c145760405162461bcd60e51b815260206004820152602560248201527f596f7520617265206e6f7420746865204f776e6572206e6f7220746865204d616044820152643730b3b2b960d91b60648201526084016106ad565b600254600160a01b900460ff16610c645760405162461bcd60e51b815260206004820152601460248201527369734f6e207265717569726520746f205472756560601b60448201526064016106ad565b600354600003610ca85760405162461bcd60e51b815260206004820152600f60248201526e4e6f207061727469636970616e747360881b60448201526064016106ad565b60005b600354811015610da7576000610cbf6119bd565b905060038281548110610cd457610cd4611d30565b6000918252602080832090910154838352600c9091526040822080546001600160a01b0319166001600160a01b03909216919091179055600380548392600d92909186908110610d2657610d26611d30565b60009182526020808320909101546001600160a01b03168352820192909252604001812091909155600480546001810182559082527f8a35acfbc15ff81a39ae7d344fd709f28e8600b4aa8c65c6b64bfe7fe36bd19b01829055600a805491610d8e83611d5c565b9190505550508080610d9f90611d5c565b915050610cab565b506002805460ff60a01b19169055565b6060600f80548060200260200160405190810160405280929190818152602001828054801561058d576020028201919060005260206000209081546001600160a01b031681526001909101906020018083116105d1575050505050905090565b600f8181548110610a1a57600080fd5b600060038281548110610e3c57610e3c611d30565b6000918252602090912001546001600160a01b031692915050565b6001546001600160a01b0316331480610e7a57506000546001600160a01b031633145b610ed85760405162461bcd60e51b815260206004820152602960248201527f596f7520617265206e6f7420746865204f776e6572206e6f722074686520466560448201526819481058d8dbdd5b9d60ba1b60648201526084016106ad565b600254600160a01b900460ff1615610f295760405162461bcd60e51b815260206004820152601460248201527369734f6e2073686f756c64206e652066616c736560601b60448201526064016106ad565b600454600003610f685760405162461bcd60e51b815260206004820152600a6024820152694e6f207469636b65747360b01b60448201526064016106ad565b6000610fc36004805480602002602001604051908101604052809291908181526020018280548015610fb957602002820191906000526020600020905b815481526020019060010190808311610fa5575b5050505050611a25565b90506000610fcf611b68565b905060005b60055481101561110c5760058181548110610ff157610ff1611d30565b600091825260208220015484516001600160a01b039091169163a9059cbb91600c919087908790811061102657611026611d30565b6020026020010151815260200190815260200160002060009054906101000a90046001600160a01b0316600660006005868154811061106757611067611d30565b6000918252602080832091909101546001600160a01b039081168452908301939093526040918201902054905160e085901b6001600160e01b031916815292909116600483015260248201526044016020604051808303816000875af11580156110d5573d6000803e3d6000fd5b505050506040513d601f19601f820116820180604052508101906110f99190611dfd565b508061110481611d5c565b915050610fd4565b5081818151811061111f5761111f611d30565b60200260200101516007819055507f9c2270628a9b29d30ae96b6c4c14ed646ee134febdce38a5b77f2bde9cea2e20600c600084848151811061116457611164611d30565b6020026020010151815260200190815260200160002060009054906101000a90046001600160a01b03168383815181106111a0576111a0611d30565b60200260200101516040516111ca9291906001600160a01b03929092168252602082015260400190565b60405180910390a160035460005b818110156112255760038054806111f1576111f1611e40565b600082815260209020810160001990810180546001600160a01b03191690550190558061121d81611d5c565b9150506111d8565b5060045460005b8181101561126e57600480548061124557611245611e40565b60019003818190600052602060002001600090559055808061126690611d5c565b91505061122c565b5060055460005b818110156112cd576000600660006005848154811061129657611296611d30565b60009182526020808320909101546001600160a01b03168352820192909252604001902055806112c581611d5c565b915050611275565b5060055460005b818110156113215760058054806112ed576112ed611e40565b600082815260209020810160001990810180546001600160a01b03191690550190558061131981611d5c565b9150506112d4565b506002805460ff60a01b1916600160a01b179055600f5460005b818110156116e4576000600e6000600f848154811061135c5761135c611d30565b60009182526020808320909101546001600160a01b031683528201929092526040019020541115611566576003600f828154811061139c5761139c611d30565b600091825260208083209091015483546001818101865594845291832090910180546001600160a01b0319166001600160a01b03909216919091179055600f8054600e929190859081106113f2576113f2611d30565b60009182526020808320909101546001600160a01b0316835282019290925260400181208054909190611426908490611e1a565b9250508190555061147760106000600f848154811061144757611447611d30565b60009182526020808320909101546001600160a01b039081168452908301939093526040909101902054166105f8565b6114e657600560106000600f848154811061149457611494611d30565b60009182526020808320909101546001600160a01b039081168452838201949094526040909201812054845460018101865594825291902090920180546001600160a01b031916929091169190911790555b6008546009546114f69190611e1a565b6006600060106000600f868154811061151157611511611d30565b60009182526020808320909101546001600160a01b03908116845283820194909452604092830182205490931684529183019390935291018120805490919061155b908490611e2d565b909155506116d29050565b600e6000600f838154811061157d5761157d611d30565b60009182526020808320909101546001600160a01b0316835282019290925260400181205490036116d257600f81815481106115bb576115bb611d30565b6000918252602082200180546001600160a01b0319169055600f8054839081106115e7576115e7611d30565b6000918252602090912001546001600160a01b0316036116d257805b600f5461161290600190611e1a565b81101561169d57600f611626826001611e2d565b8154811061163657611636611d30565b600091825260209091200154600f80546001600160a01b03909216918390811061166257611662611d30565b600091825260209091200180546001600160a01b0319166001600160a01b03929092169190911790558061169581611d5c565b915050611603565b50600f8054806116af576116af611e40565b600082815260209020810160001990810180546001600160a01b03191690550190555b806116dc81611d5c565b91505061133b565b5050505050505050565b600254600160a01b900460ff1661173e5760405162461bcd60e51b8152602060048201526014602482015273105b1b08151a58dad95d1cc814dbdb190813dd5d60621b60448201526064016106ad565b600954821461175f5760405162461bcd60e51b81526004016106ad90611d75565b61176833610b37565b156117b55760405162461bcd60e51b815260206004820152601d60248201527f596f752061726520416c72656164792061207061727469636970616e7400000060448201526064016106ad565b6117be816105f8565b61180e57600580546001810182556000919091527f036b6384b5eca791c62761152d0c79bb0604c104a5fb6f4eb0703f3154bb3db00180546001600160a01b0319166001600160a01b0383161790555b6001546008546040516323b872dd60e01b81526001600160a01b03848116936323b872dd9361184593339390921691600401611dd9565b6020604051808303816000875af1158015611864573d6000803e3d6000fd5b505050506040513d601f19601f820116820180604052508101906118889190611dfd565b50806001600160a01b03166323b872dd3330600854866118a89190611e1a565b6040518463ffffffff1660e01b81526004016118c693929190611dd9565b6020604051808303816000875af11580156118e5573d6000803e3d6000fd5b505050506040513d601f19601f820116820180604052508101906119099190611dfd565b50600380546001810182556000919091527fc2575a0e9e593c00f959f8c92f12db2869c3395a3b0502d05e2516446f71f85b0180546001600160a01b031916331790556008546119599083611e1a565b6001600160a01b03821660009081526006602052604081208054909190611981908490611e2d565b90915550506040513381527f4f7d5e68462c76e2693e9f56aaa9e9dec62a0558f74233ccc40145e2819dabb19060200160405180910390a15050565b600a54604080514260208201526bffffffffffffffffffffffff193360601b16918101919091526054810191909152600090620186a090829082906074016040516020818303038152906040528051906020012060001c611a1e9190611e56565b9392505050565b80516060908060005b81811015611b5f5760008342878481518110611a4c57611a4c611d30565b6020026020010151604051602001611a6e929190918252602082015260400190565b6040516020818303038152906040528051906020012060001c611a919190611e56565b611a9c906001611e2d565b9050600086611aac600184611e1a565b81518110611abc57611abc611d30565b6020026020010151905086600186611ad49190611e1a565b81518110611ae457611ae4611d30565b602002602001015187600184611afa9190611e1a565b81518110611b0a57611b0a611d30565b60209081029190910101528087611b22600188611e1a565b81518110611b3257611b32611d30565b6020908102919091010152611b48600186611e1a565b945050508080611b5790611d5c565b915050611a2e565b50929392505050565b600454600a54604080514260208201526bffffffffffffffffffffffff193360601b169181019190915260548101919091526000919081906074016040516020818303038152906040528051906020012060001c611bc69190611e56565b91505090565b6020808252825182820181905260009190848201906040850190845b81811015611c0457835183529284019291840191600101611be8565b50909695505050505050565b6020808252825182820181905260009190848201906040850190845b81811015611c045783516001600160a01b031683529284019291840191600101611c2c565b80356001600160a01b0381168114611c6857600080fd5b919050565b600060208284031215611c7f57600080fd5b611a1e82611c51565b600080600060608486031215611c9d57600080fd5b8335925060208401359150611cb460408501611c51565b90509250925092565b600060208284031215611ccf57600080fd5b5035919050565b8015158114611ce457600080fd5b50565b600060208284031215611cf957600080fd5b8135611a1e81611cd6565b60008060408385031215611d1757600080fd5b82359150611d2760208401611c51565b90509250929050565b634e487b7160e01b600052603260045260246000fd5b634e487b7160e01b600052601160045260246000fd5b600060018201611d6e57611d6e611d46565b5060010190565b60208082526027908201527f506c656173652050726f76696465722041637475616c207072696365206f66206040820152667469636b65747360c81b606082015260800190565b8082028115828204841417611dd357611dd3611d46565b92915050565b6001600160a01b039384168152919092166020820152604081019190915260600190565b600060208284031215611e0f57600080fd5b8151611a1e81611cd6565b81810381811115611dd357611dd3611d46565b80820180821115611dd357611dd3611d46565b634e487b7160e01b600052603160045260246000fd5b600082611e7357634e487b7160e01b600052601260045260246000fd5b50069056fea2646970667358221220510c1cf8602b2e5f45fbea678661476d10274dea7f240d316c4ac9c58c2288f664736f6c63430008110033",
    "sourcePath": "/home/empiric-18/Desktop/Blockchain Lottery/Blockchain Lottery Main/contracts/BlockchainLottery.sol",
    "compiler": {
        "name": "solc",
        "version": "0.8.17+commit.8df45f5f"
    },
    "functionHashes": {
        "addressAndTickets(address)": "41779c00",
        "amount()": "aa8c217c",
        "assignTicket()": "96600248",
        "buyTickets(uint256,address)": "fdad3a5f",
        "fee()": "ddca3f43",
        "feeAccount()": "65e17c9d",
        "getAllParticipants()": "195ec9ee",
        "getAllPrimeUsers()": "b4e5e415",
        "getAllTickets()": "03e96fe3",
        "getAllTokens()": "2a5c792a",
        "getLottery()": "cbc2cce7",
        "getParticipants(uint256)": "c1e3bd3e",
        "getTicket(address)": "4717dea9",
        "getTokensLen()": "a4204833",
        "isOn()": "175bbecf",
        "isParticipant(address)": "929066f5",
        "isToken(address)": "19f37361",
        "lastWinner()": "fe188184",
        "manager()": "481c6a75",
        "owner()": "8da5cb5b",
        "participants(uint256)": "35c1d349",
        "primeUser(uint256)": "b73205c0",
        "primeUserBuyTicket(uint256,uint256,address)": "28f098ec",
        "primeUserTickets(address)": "3617b1d5",
        "primeUserToken(address)": "a37150f0",
        "setDepositeAmount(uint256)": "b0e19912",
        "setFeeAccount(address)": "4b023cf8",
        "setIsOn(bool)": "3923aada",
        "setRandNounce(uint256)": "e41f8b53",
        "tickets(uint256)": "50b44712",
        "ticketsAndAddress(uint256)": "71e313bd",
        "tokens(uint256)": "4f64b2be",
        "totalTokenPrize(address)": "8b46295a",
        "updateFee(uint256)": "9012c4a8",
        "updateOwner(address)": "880cdc31"
    },
    "gasEstimates": {
        "creation": {
            "codeDepositCost": "1570800",
            "executionCost": "169897",
            "totalCost": "1740697"
        },
        "external": {
            "addressAndTickets(address)": "2587",
            "amount()": "2428",
            "assignTicket()": "infinite",
            "buyTickets(uint256,address)": "infinite",
            "fee()": "2361",
            "feeAccount()": "2448",
            "getAllParticipants()": "infinite",
            "getAllPrimeUsers()": "infinite",
            "getAllTickets()": "infinite",
            "getAllTokens()": "infinite",
            "getLottery()": "infinite",
            "getParticipants(uint256)": "4730",
            "getTicket(address)": "2627",
            "getTokensLen()": "2403",
            "isOn()": "2396",
            "isParticipant(address)": "infinite",
            "isToken(address)": "infinite",
            "lastWinner()": "2427",
            "manager()": "2449",
            "owner()": "2427",
            "participants(uint256)": "4704",
            "primeUser(uint256)": "4703",
            "primeUserBuyTicket(uint256,uint256,address)": "infinite",
            "primeUserTickets(address)": "2631",
            "primeUserToken(address)": "2647",
            "setDepositeAmount(uint256)": "22357",
            "setFeeAccount(address)": "24604",
            "setIsOn(bool)": "24583",
            "setRandNounce(uint256)": "22400",
            "tickets(uint256)": "4664",
            "ticketsAndAddress(uint256)": "2610",
            "tokens(uint256)": "4681",
            "totalTokenPrize(address)": "2587",
            "updateFee(uint256)": "24559",
            "updateOwner(address)": "26757"
        },
        "internal": {
            "LotteryWinner()": "infinite",
            "shuffleTickets(uint256[] memory)": "infinite",
            "ticketGenerator()": "infinite"
        }
    }
}